{
  "contractName": "MockValidators",
  "abi": [
    {
      "inputs": [
        {
          "internalType": "address[]",
          "name": "vals_",
          "type": "address[]"
        },
        {
          "internalType": "address",
          "name": "proposal_",
          "type": "address"
        }
      ],
      "stateMutability": "nonpayable",
      "type": "constructor"
    },
    {
      "inputs": [],
      "name": "getActiveValidators",
      "outputs": [
        {
          "internalType": "address[]",
          "name": "",
          "type": "address[]"
        }
      ],
      "stateMutability": "view",
      "type": "function"
    },
    {
      "inputs": [
        {
          "internalType": "address",
          "name": "who",
          "type": "address"
        }
      ],
      "name": "isActiveValidator",
      "outputs": [
        {
          "internalType": "bool",
          "name": "",
          "type": "bool"
        }
      ],
      "stateMutability": "view",
      "type": "function"
    },
    {
      "inputs": [
        {
          "internalType": "address",
          "name": "who",
          "type": "address"
        }
      ],
      "name": "setUnpassed",
      "outputs": [],
      "stateMutability": "nonpayable",
      "type": "function"
    },
    {
      "inputs": [
        {
          "internalType": "address",
          "name": "who",
          "type": "address"
        }
      ],
      "name": "tryReactive",
      "outputs": [
        {
          "internalType": "bool",
          "name": "",
          "type": "bool"
        }
      ],
      "stateMutability": "nonpayable",
      "type": "function"
    }
  ],
  "bytecode": "0x608060405234801561001057600080fd5b506040516104883803806104888339818101604052604081101561003357600080fd5b810190808051604051939291908464010000000082111561005357600080fd5b90830190602082018581111561006857600080fd5b825186602082028301116401000000008211171561008557600080fd5b82525081516020918201928201910280838360005b838110156100b257818101518382015260200161009a565b505050509190910160405250602001519150600090505b82518110156101255760008382815181106100e057fe5b6020908102919091018101518254600180820185556000948552929093209092018054600160a060020a031916600160a060020a0390931692909217909155016100c9565b5060018054600160a060020a031916600160a060020a039290921691909117905550610332806101566000396000f3fe608060405234801561001057600080fd5b5060043610610068577c0100000000000000000000000000000000000000000000000000000000600035046315ea2781811461006d57806340550a1c1461009557806382bd3d92146100cf5780639de70258146100f5575b600080fd5b6100936004803603602081101561008357600080fd5b5035600160a060020a031661014d565b005b6100bb600480360360208110156100ab57600080fd5b5035600160a060020a03166101e4565b604080519115158252519081900360200190f35b6100bb600480360360208110156100e557600080fd5b5035600160a060020a0316610241565b6100fd610247565b60408051602080825283518183015283519192839290830191858101910280838360005b83811015610139578181015183820152602001610121565b505050509050019250505060405180910390f35b600154604080517f15ea2781000000000000000000000000000000000000000000000000000000008152600160a060020a038481166004830152915191909216916315ea27819160248083019260209291908290030181600087803b1580156101b557600080fd5b505af11580156101c9573d6000803e3d6000fd5b505050506040513d60208110156101df57600080fd5b505050565b6000805b6000548110156102365782600160a060020a03166000828154811061020957fe5b600091825260209091200154600160a060020a0316141561022e57600191505061023c565b6001016101e8565b50600090505b919050565b50600190565b600080546060919067ffffffffffffffff8111801561026557600080fd5b5060405190808252806020026020018201604052801561028f578160200160208202803683370190505b50905060005b6000548110156102f657600081815481106102ac57fe5b9060005260206000200160009054906101000a9004600160a060020a03168282815181106102d657fe5b600160a060020a0390921660209283029190910190910152600101610295565b5090509056fea264697066735822122055570f9f5bb12efe438946161c68e44c547c12fbbda981b70b869105556092ef64736f6c63430007060033",
  "immutableReferences": {},
  "source": "pragma solidity >=0.6.0 <0.8.0;\n\nimport \"../Proposal.sol\";\n\ncontract MockValidators {\n    address[] vals;\n\n    Proposal proposal;\n\n    constructor(address[] memory vals_, address proposal_) public {\n        for (uint256 i = 0; i < vals_.length; i++) {\n            vals.push(vals_[i]);\n        }\n\n        proposal = Proposal(proposal_);\n    }\n\n    function getActiveValidators() public view returns (address[] memory) {\n        address[] memory activeSet = new address[](vals.length);\n\n        for (uint256 i = 0; i < vals.length; i++) {\n            activeSet[i] = vals[i];\n        }\n        return activeSet;\n    }\n\n    function isActiveValidator(address who) public view returns (bool) {\n        for (uint256 i = 0; i < vals.length; i++) {\n            if (vals[i] == who) {\n                return true;\n            }\n        }\n\n        return false;\n    }\n\n    function setUnpassed(address who) public {\n        proposal.setUnpassed(who);\n    }\n\n    function tryReactive(address who) public returns (bool) {\n        return true;\n    }\n}\n",
  "sourcePath": "/mnt/c/YKChain/contracts/contracts/mock/MockValidators.sol",
  "compiler": {
    "name": "solc",
    "version": "0.7.6+commit.7338295f.Emscripten.clang"
  },
  "schemaVersion": "3.3.4",
  "updatedAt": "2021-04-08T13:02:49.365Z",
  "devdoc": {
    "kind": "dev",
    "methods": {},
    "version": 1
  },
  "userdoc": {
    "kind": "user",
    "methods": {},
    "version": 1
  }
}