{
  "contractName": "Params",
  "abi": [
    {
      "inputs": [],
      "name": "MaxValidators",
      "outputs": [
        {
          "internalType": "uint16",
          "name": "",
          "type": "uint16"
        }
      ],
      "stateMutability": "view",
      "type": "function"
    },
    {
      "inputs": [],
      "name": "MinimalStakingCoin",
      "outputs": [
        {
          "internalType": "uint256",
          "name": "",
          "type": "uint256"
        }
      ],
      "stateMutability": "view",
      "type": "function"
    },
    {
      "inputs": [],
      "name": "ProposalAddr",
      "outputs": [
        {
          "internalType": "address",
          "name": "",
          "type": "address"
        }
      ],
      "stateMutability": "view",
      "type": "function"
    },
    {
      "inputs": [],
      "name": "PunishContractAddr",
      "outputs": [
        {
          "internalType": "address",
          "name": "",
          "type": "address"
        }
      ],
      "stateMutability": "view",
      "type": "function"
    },
    {
      "inputs": [],
      "name": "StakingLockPeriod",
      "outputs": [
        {
          "internalType": "uint64",
          "name": "",
          "type": "uint64"
        }
      ],
      "stateMutability": "view",
      "type": "function"
    },
    {
      "inputs": [],
      "name": "ValidatorContractAddr",
      "outputs": [
        {
          "internalType": "address",
          "name": "",
          "type": "address"
        }
      ],
      "stateMutability": "view",
      "type": "function"
    },
    {
      "inputs": [],
      "name": "WithdrawProfitPeriod",
      "outputs": [
        {
          "internalType": "uint64",
          "name": "",
          "type": "uint64"
        }
      ],
      "stateMutability": "view",
      "type": "function"
    },
    {
      "inputs": [],
      "name": "initialized",
      "outputs": [
        {
          "internalType": "bool",
          "name": "",
          "type": "bool"
        }
      ],
      "stateMutability": "view",
      "type": "function"
    }
  ],
  "bytecode": "0x608060405234801561001057600080fd5b506101da806100206000396000f3fe608060405234801561001057600080fd5b50600436106100a5576000357c010000000000000000000000000000000000000000000000000000000090048063be64569211610078578063be64569214610107578063c967f90f14610121578063db78dd2814610140578063efd8d8e214610165576100a5565b8063158ef93e146100aa5780631b5e358c146100c65780633a061bd3146100f75780636233be5d146100ff575b600080fd5b6100b261016d565b604080519115158252519081900360200190f35b6100ce610176565b6040805173ffffffffffffffffffffffffffffffffffffffff9092168252519081900360200190f35b6100ce61017c565b6100ce610182565b61010f610188565b60408051918252519081900360200190f35b610129610195565b6040805161ffff9092168252519081900360200190f35b61014861019a565b6040805167ffffffffffffffff9092168252519081900360200190f35b61014861019f565b60005460ff1681565b61f00181565b61f00081565b61f00281565b6801bc16d674ec80000081565b602081565b606481565b60028156fea26469706673582212206953b6f3751c1ee1fbe1b249720038b06485653ddc744b9a4dbf9467cd6ce0c164736f6c63430007000033",
  "immutableReferences": {},
  "source": "pragma solidity >=0.6.0 <0.8.0;\n\ncontract Params {\n    bool public initialized ;\n\n    \n    // System contracts\n    address\n        public constant ValidatorContractAddr = 0x000000000000000000000000000000000000f000;\n    address\n        public constant PunishContractAddr = 0x000000000000000000000000000000000000F001;\n    address\n        public constant ProposalAddr = 0x000000000000000000000000000000000000F002;\n\n    \n    // System params\n    uint16 constant public MaxValidators = 32;\n    // Validator have to wait StakingLockPeriod blocks to withdraw staking\n    uint64 constant public StakingLockPeriod = 100;\n    // Validator have to wait WithdrawProfitPeriod blocks to withdraw his profits\n    uint64 constant public WithdrawProfitPeriod = 2;\n    uint256 constant public MinimalStakingCoin = 32 ether;\n\n    \n    modifier onlyMiner() {\n        require(\n            msg.sender == block.coinbase,\n            \"Miner only\"\n        );\n        _;\n    }\n\n    \n    modifier onlyNotInitialized() {\n        require(!initialized, \"Already initialized\");\n        _;\n    }\n\n    modifier onlyInitialized() {\n        require(initialized, \"Not init yet\");\n        _;\n    }\n\n    modifier onlyPunishContract() {\n        require(msg.sender == PunishContractAddr, \"Punish contract only\");\n        _;\n    }\n\n    modifier onlyBlockEpoch(uint256 epoch) {\n        require(block.number % epoch == 0, \"Block epoch only\");\n        _;\n    }\n\n    modifier onlyValidatorsContract() {\n        require(\n            msg.sender == ValidatorContractAddr,\n            \"Validators contract only\"\n        );\n        _;\n    }\n\n    modifier onlyProposalContract() {\n        require(\n            msg.sender == ProposalAddr,\n            \"Proposal contract only\"\n        );\n        _;\n    }\n\n    \n}\n",
  "sourcePath": "/root/YKChain/contracts/contracts/Params.sol",
  "compiler": {
    "name": "solc",
    "version": "0.7.0+commit.9e61f92b.Emscripten.clang"
  },
  "schemaVersion": "3.3.4",
  "updatedAt": "2021-04-11T12:23:03.753Z",
  "devdoc": {
    "kind": "dev",
    "methods": {},
    "version": 1
  },
  "userdoc": {
    "kind": "user",
    "methods": {},
    "version": 1
  }
}