{
  "contractName": "Proposal",
  "abi": [
    {
      "anonymous": false,
      "inputs": [
        {
          "indexed": true,
          "internalType": "bytes32",
          "name": "id",
          "type": "bytes32"
        },
        {
          "indexed": true,
          "internalType": "address",
          "name": "proposer",
          "type": "address"
        },
        {
          "indexed": true,
          "internalType": "address",
          "name": "dst",
          "type": "address"
        },
        {
          "indexed": false,
          "internalType": "uint256",
          "name": "time",
          "type": "uint256"
        }
      ],
      "name": "LogCreateProposal",
      "type": "event"
    },
    {
      "anonymous": false,
      "inputs": [
        {
          "indexed": true,
          "internalType": "bytes32",
          "name": "id",
          "type": "bytes32"
        },
        {
          "indexed": true,
          "internalType": "address",
          "name": "dst",
          "type": "address"
        },
        {
          "indexed": false,
          "internalType": "uint256",
          "name": "time",
          "type": "uint256"
        }
      ],
      "name": "LogPassProposal",
      "type": "event"
    },
    {
      "anonymous": false,
      "inputs": [
        {
          "indexed": true,
          "internalType": "bytes32",
          "name": "id",
          "type": "bytes32"
        },
        {
          "indexed": true,
          "internalType": "address",
          "name": "dst",
          "type": "address"
        },
        {
          "indexed": false,
          "internalType": "uint256",
          "name": "time",
          "type": "uint256"
        }
      ],
      "name": "LogRejectProposal",
      "type": "event"
    },
    {
      "anonymous": false,
      "inputs": [
        {
          "indexed": true,
          "internalType": "address",
          "name": "val",
          "type": "address"
        },
        {
          "indexed": false,
          "internalType": "uint256",
          "name": "time",
          "type": "uint256"
        }
      ],
      "name": "LogSetUnpassed",
      "type": "event"
    },
    {
      "anonymous": false,
      "inputs": [
        {
          "indexed": true,
          "internalType": "bytes32",
          "name": "id",
          "type": "bytes32"
        },
        {
          "indexed": true,
          "internalType": "address",
          "name": "voter",
          "type": "address"
        },
        {
          "indexed": false,
          "internalType": "bool",
          "name": "auth",
          "type": "bool"
        },
        {
          "indexed": false,
          "internalType": "uint256",
          "name": "time",
          "type": "uint256"
        }
      ],
      "name": "LogVote",
      "type": "event"
    },
    {
      "inputs": [],
      "name": "MaxValidators",
      "outputs": [
        {
          "internalType": "uint16",
          "name": "",
          "type": "uint16"
        }
      ],
      "stateMutability": "view",
      "type": "function"
    },
    {
      "inputs": [],
      "name": "MinimalStakingCoin",
      "outputs": [
        {
          "internalType": "uint256",
          "name": "",
          "type": "uint256"
        }
      ],
      "stateMutability": "view",
      "type": "function"
    },
    {
      "inputs": [],
      "name": "ProposalAddr",
      "outputs": [
        {
          "internalType": "address",
          "name": "",
          "type": "address"
        }
      ],
      "stateMutability": "view",
      "type": "function"
    },
    {
      "inputs": [],
      "name": "PunishContractAddr",
      "outputs": [
        {
          "internalType": "address",
          "name": "",
          "type": "address"
        }
      ],
      "stateMutability": "view",
      "type": "function"
    },
    {
      "inputs": [],
      "name": "StakingLockPeriod",
      "outputs": [
        {
          "internalType": "uint64",
          "name": "",
          "type": "uint64"
        }
      ],
      "stateMutability": "view",
      "type": "function"
    },
    {
      "inputs": [],
      "name": "ValidatorContractAddr",
      "outputs": [
        {
          "internalType": "address",
          "name": "",
          "type": "address"
        }
      ],
      "stateMutability": "view",
      "type": "function"
    },
    {
      "inputs": [],
      "name": "WithdrawProfitPeriod",
      "outputs": [
        {
          "internalType": "uint64",
          "name": "",
          "type": "uint64"
        }
      ],
      "stateMutability": "view",
      "type": "function"
    },
    {
      "inputs": [],
      "name": "initialized",
      "outputs": [
        {
          "internalType": "bool",
          "name": "",
          "type": "bool"
        }
      ],
      "stateMutability": "view",
      "type": "function"
    },
    {
      "inputs": [
        {
          "internalType": "address",
          "name": "",
          "type": "address"
        }
      ],
      "name": "pass",
      "outputs": [
        {
          "internalType": "bool",
          "name": "",
          "type": "bool"
        }
      ],
      "stateMutability": "view",
      "type": "function"
    },
    {
      "inputs": [],
      "name": "proposalLastingPeriod",
      "outputs": [
        {
          "internalType": "uint256",
          "name": "",
          "type": "uint256"
        }
      ],
      "stateMutability": "view",
      "type": "function"
    },
    {
      "inputs": [
        {
          "internalType": "bytes32",
          "name": "",
          "type": "bytes32"
        }
      ],
      "name": "proposals",
      "outputs": [
        {
          "internalType": "address",
          "name": "proposer",
          "type": "address"
        },
        {
          "internalType": "address",
          "name": "dst",
          "type": "address"
        },
        {
          "internalType": "string",
          "name": "details",
          "type": "string"
        },
        {
          "internalType": "uint256",
          "name": "createTime",
          "type": "uint256"
        },
        {
          "internalType": "uint16",
          "name": "agree",
          "type": "uint16"
        },
        {
          "internalType": "uint16",
          "name": "reject",
          "type": "uint16"
        },
        {
          "internalType": "bool",
          "name": "resultExist",
          "type": "bool"
        }
      ],
      "stateMutability": "view",
      "type": "function"
    },
    {
      "inputs": [
        {
          "internalType": "address",
          "name": "",
          "type": "address"
        },
        {
          "internalType": "bytes32",
          "name": "",
          "type": "bytes32"
        }
      ],
      "name": "votes",
      "outputs": [
        {
          "internalType": "address",
          "name": "voter",
          "type": "address"
        },
        {
          "internalType": "uint256",
          "name": "voteTime",
          "type": "uint256"
        },
        {
          "internalType": "bool",
          "name": "auth",
          "type": "bool"
        }
      ],
      "stateMutability": "view",
      "type": "function"
    },
    {
      "inputs": [
        {
          "internalType": "address[]",
          "name": "vals",
          "type": "address[]"
        }
      ],
      "name": "initialize",
      "outputs": [],
      "stateMutability": "nonpayable",
      "type": "function"
    },
    {
      "inputs": [
        {
          "internalType": "address",
          "name": "dst",
          "type": "address"
        },
        {
          "internalType": "string",
          "name": "details",
          "type": "string"
        }
      ],
      "name": "createProposal",
      "outputs": [
        {
          "internalType": "bool",
          "name": "",
          "type": "bool"
        }
      ],
      "stateMutability": "nonpayable",
      "type": "function"
    },
    {
      "inputs": [
        {
          "internalType": "bytes32",
          "name": "id",
          "type": "bytes32"
        },
        {
          "internalType": "bool",
          "name": "auth",
          "type": "bool"
        }
      ],
      "name": "voteProposal",
      "outputs": [
        {
          "internalType": "bool",
          "name": "",
          "type": "bool"
        }
      ],
      "stateMutability": "nonpayable",
      "type": "function"
    },
    {
      "inputs": [
        {
          "internalType": "address",
          "name": "val",
          "type": "address"
        }
      ],
      "name": "setUnpassed",
      "outputs": [
        {
          "internalType": "bool",
          "name": "",
          "type": "bool"
        }
      ],
      "stateMutability": "nonpayable",
      "type": "function"
    }
  ],
  "bytecode": "0x608060405234801561001057600080fd5b5061141d806100206000396000f3fe608060405234801561001057600080fd5b506004361061011d576000357c01000000000000000000000000000000000000000000000000000000009004806382c4b3b2116100b4578063c967f90f11610083578063c967f90f14610420578063db78dd281461043f578063e823c81414610464578063efd8d8e21461046c5761011d565b806382c4b3b214610349578063a224cee71461036f578063a4c4d922146103e1578063be645692146104065761011d565b80631f4f7d29116100f05780631f4f7d29146101de57806332ed5b121461025e5780633a061bd3146103395780636233be5d146103415761011d565b8063158ef93e1461012257806315ea27811461013e5780631b5e358c146101645780631db5ade814610188575b600080fd5b61012a610474565b604080519115158252519081900360200190f35b61012a6004803603602081101561015457600080fd5b5035600160a060020a031661047d565b61016c610535565b60408051600160a060020a039092168252519081900360200190f35b6101b46004803603604081101561019e57600080fd5b50600160a060020a03813516906020013561053b565b60408051600160a060020a0390941684526020840192909252151582820152519081900360600190f35b61012a600480360360408110156101f457600080fd5b600160a060020a03823516919081019060408101602082013564010000000081111561021f57600080fd5b82018360208201111561023157600080fd5b8035906020019184600183028401116401000000008311171561025357600080fd5b509092509050610574565b61027b6004803603602081101561027457600080fd5b5035610878565b6040518088600160a060020a0316815260200187600160a060020a03168152602001806020018681526020018561ffff1681526020018461ffff1681526020018315158152602001828103825287818151815260200191508051906020019080838360005b838110156102f85781810151838201526020016102e0565b50505050905090810190601f1680156103255780820380516001836020036101000a031916815260200191505b509850505050505050505060405180910390f35b61016c610958565b61016c61095e565b61012a6004803603602081101561035f57600080fd5b5035600160a060020a0316610964565b6103df6004803603602081101561038557600080fd5b8101906020810181356401000000008111156103a057600080fd5b8201836020820111156103b257600080fd5b803590602001918460208302840111640100000000831117156103d457600080fd5b509092509050610979565b005b61012a600480360360408110156103f757600080fd5b50803590602001351515610ae1565b61040e6112a9565b60408051918252519081900360200190f35b6104286112b6565b6040805161ffff9092168252519081900360200190f35b6104476112bb565b6040805167ffffffffffffffff9092168252519081900360200190f35b61040e6112c0565b6104476112c6565b60005460ff1681565b60003361f000146104d8576040805160e560020a62461bcd02815260206004820152601860248201527f56616c696461746f727320636f6e7472616374206f6e6c790000000000000000604482015290519081900360640190fd5b600160a060020a038216600081815260026020908152604091829020805460ff19169055815142815291517f4e0b191f7f5c32b1b5e3704b68874b1a3980147cae00be8ece271bfb5b92c07a9281900390910190a2506001919050565b61f00181565b6004602090815260009283526040808420909152908252902080546001820154600290920154600160a060020a03909116919060ff1683565b600160a060020a03831660009081526002602052604081205460ff16156105cf5760405160e560020a62461bcd02815260040180806020018281038252602981526020018061139c6029913960400191505060405180910390fd5b600033858585426040516020018086600160a060020a03166c0100000000000000000000000002815260140185600160a060020a03166c010000000000000000000000000281526014018484808284379190910192835250506040805180830381526020928301909152805191012094505050610bb885111591506106a09050576040805160e560020a62461bcd02815260206004820152601060248201527f44657461696c7320746f6f206c6f6e6700000000000000000000000000000000604482015290519081900360640190fd5b6000818152600360208190526040909120015415610708576040805160e560020a62461bcd02815260206004820152601760248201527f50726f706f73616c20616c726561647920657869737473000000000000000000604482015290519081900360640190fd5b6107106112cb565b338152600160a060020a03861660208083019190915260408051601f87018390048302810183019091528581529086908690819084018382808284376000920182905250604080870195865242606088015287825260036020908152912086518154600160a060020a0391821673ffffffffffffffffffffffffffffffffffffffff199182161783558389015160018401805491909316911617905594518051879695506107c79450600286019350910190611308565b506060820151600382015560808201516004909101805460a084015160c09094015161ffff1990911661ffff9384161763ffff000019166201000093909416929092029290921764ff00000000191664010000000091151591909102179055604080514281529051600160a060020a03881691339185917fc10f2f4d53a0e342536c6af3cce9c6ee25c32dbb323521ce0e1d4494a3e362e8916020918190039190910190a450600195945050505050565b60036020908152600091825260409182902080546001808301546002808501805488516101009582161595909502600019011691909104601f8101879004870284018701909752868352600160a060020a03938416969390911694919290918301828280156109285780601f106108fd57610100808354040283529160200191610928565b820191906000526020600020905b81548152906001019060200180831161090b57829003601f168201915b50505050600383015460049093015491929161ffff80821692506201000082041690640100000000900460ff1687565b61f00081565b61f00281565b60026020526000908152604090205460ff1681565b60005460ff16156109d4576040805160e560020a62461bcd02815260206004820152601360248201527f416c726561647920696e697469616c697a656400000000000000000000000000604482015290519081900360640190fd5b62093a806001556005805473ffffffffffffffffffffffffffffffffffffffff191661f00017905560005b81811015610acf576000838383818110610a1557fe5b90506020020135600160a060020a0316600160a060020a03161415610a84576040805160e560020a62461bcd02815260206004820152601960248201527f496e76616c69642076616c696461746f72206164647265737300000000000000604482015290519081900360640190fd5b600160026000858585818110610a9657fe5b60209081029290920135600160a060020a0316835250810191909152604001600020805460ff19169115159190911790556001016109ff565b50506000805460ff1916600117905550565b600554604080517f40550a1c0000000000000000000000000000000000000000000000000000000081523360048201529051600092600160a060020a0316916340550a1c916024808301926020929190829003018186803b158015610b4557600080fd5b505afa158015610b59573d6000803e3d6000fd5b505050506040513d6020811015610b6f57600080fd5b5051610bc5576040805160e560020a62461bcd02815260206004820152600e60248201527f56616c696461746f72206f6e6c79000000000000000000000000000000000000604482015290519081900360640190fd5b60008381526003602081905260409091200154610c2c576040805160e560020a62461bcd02815260206004820152601260248201527f50726f706f73616c206e6f742065786973740000000000000000000000000000604482015290519081900360640190fd5b33600090815260046020908152604080832086845290915290206001015415610c895760405160e560020a62461bcd0281526004018080602001828103825260238152602001806113c56023913960400191505060405180910390fd5b60015460008481526003602081905260409091200154014210610cf6576040805160e560020a62461bcd02815260206004820152601060248201527f50726f706f73616c206578706972656400000000000000000000000000000000604482015290519081900360640190fd5b3360008181526004602090815260408083208784528252918290204260018201819055815473ffffffffffffffffffffffffffffffffffffffff1916851782556002909101805460ff1916871515908117909155835190815291820152815186927f6c59bda68cac318717c60c7c9635a78a0f0613f9887cc18a7157f5745a86d14e928290030190a38115610db1576000838152600360205260409020600401805461ffff8082166001011661ffff19909116179055610de5565b60008381526003602052604090206004018054600161ffff62010000808404821692909201160263ffff0000199091161790555b600083815260036020908152604080832060010154600160a060020a03168352600290915290205460ff1680610e345750600083815260036020526040902060040154640100000000900460ff165b15610e41575060016112a3565b600554604080517f9de702580000000000000000000000000000000000000000000000000000000081529051600292600160a060020a031691639de70258916004808301926000929190829003018186803b158015610e9f57600080fd5b505afa158015610eb3573d6000803e3d6000fd5b505050506040513d6000823e601f3d908101601f191682016040526020811015610edc57600080fd5b8101908080516040519392919084640100000000821115610efc57600080fd5b908301906020820185811115610f1157600080fd5b8251866020820283011164010000000082111715610f2e57600080fd5b82525081516020918201928201910280838360005b83811015610f5b578181015183820152602001610f43565b505050509050016040525050505181610f7057fe5b60008581526003602052604090206004015491900460010161ffff909116106110d257600083815260036020818152604080842060018181018054600160a060020a03908116885260028652848820805460ff19169093179092558987529484526004918201805464ff000000001916640100000000179055600554945483517f82bd3d9200000000000000000000000000000000000000000000000000000000815290821692810192909252915193909116936382bd3d9293602480840194939192918390030190829087803b15801561104a57600080fd5b505af115801561105e573d6000803e3d6000fd5b505050506040513d602081101561107457600080fd5b50506000838152600360209081526040918290206001015482514281529251600160a060020a039091169286927fc9d96d61eb62031865c523ae107f3c22f5ed445af237636bcd88bea1705c70d592918290030190a35060016112a3565b600554604080517f9de702580000000000000000000000000000000000000000000000000000000081529051600292600160a060020a031691639de70258916004808301926000929190829003018186803b15801561113057600080fd5b505afa158015611144573d6000803e3d6000fd5b505050506040513d6000823e601f3d908101601f19168201604052602081101561116d57600080fd5b810190808051604051939291908464010000000082111561118d57600080fd5b9083019060208201858111156111a257600080fd5b82518660208202830111640100000000821117156111bf57600080fd5b82525081516020918201928201910280838360005b838110156111ec5781810151838201526020016111d4565b50505050905001604052505050518161120157fe5b046001016003600085815260200190815260200160002060040160029054906101000a900461ffff1661ffff161061129f5760008381526003602090815260409182902060048101805464ff0000000019166401000000001790556001015482514281529251600160a060020a039091169286927fec955d77e6e7d74e18b1c91977ef0f6fd5a6d02a28d1979686339fe69399782592918290030190a35b5060015b92915050565b6801bc16d674ec80000081565b602081565b606481565b60015481565b600281565b6040805160e08101825260008082526020820181905260609282018390529181018290526080810182905260a0810182905260c081019190915290565b828054600181600116156101000203166002900490600052602060002090601f016020900481019282601f1061134957805160ff1916838001178555611376565b82800160010185558215611376579182015b8281111561137657825182559160200191906001019061135b565b50611382929150611386565b5090565b5b80821115611382576000815560010161138756fe44737420616c7265616479207061737365642c20596f752063616e207374617274207374616b696e67596f752063616e277420766f746520666f7220612070726f706f73616c207477696365a2646970667358221220f8f14084f69fa40341238bed96ae4c34c59cfd4497d62c10a304dc6bc9482e4a64736f6c634300060c0033",
  "immutableReferences": {},
  "source": "pragma solidity >=0.6.0 <0.8.0;\n\nimport \"./Params.sol\";\nimport \"./Validators.sol\";\n\ncontract Proposal is Params {\n    // How long a proposal will exist\n    uint256 public proposalLastingPeriod;\n\n    // record\n    mapping(address => bool) public pass;\n\n    struct ProposalInfo {\n        // who propose this proposal\n        address proposer;\n        // propose who to be a validator\n        address dst;\n        // optional detail info of proposal\n        string details;\n        // time create proposal\n        uint256 createTime;\n        //\n        // vote info\n        //\n        // number agree this proposal\n        uint16 agree;\n        // number reject this proposal\n        uint16 reject;\n        // means you can get proposal of current vote.\n        bool resultExist;\n    }\n\n    struct VoteInfo {\n        address voter;\n        uint256 voteTime;\n        bool auth;\n    }\n\n    mapping(bytes32 => ProposalInfo) public proposals;\n    mapping(address => mapping(bytes32 => VoteInfo)) public votes;\n\n    Validators validators;\n\n    event LogCreateProposal(\n        bytes32 indexed id,\n        address indexed proposer,\n        address indexed dst,\n        uint256 time\n    );\n    event LogVote(\n        bytes32 indexed id,\n        address indexed voter,\n        bool auth,\n        uint256 time\n    );\n    event LogPassProposal(\n        bytes32 indexed id,\n        address indexed dst,\n        uint256 time\n    );\n    event LogRejectProposal(\n        bytes32 indexed id,\n        address indexed dst,\n        uint256 time\n    );\n    event LogSetUnpassed(address indexed val, uint256 time);\n\n    modifier onlyValidator() {\n        require(validators.isActiveValidator(msg.sender), \"Validator only\");\n        _;\n    }\n\n    function initialize(address[] calldata vals) external onlyNotInitialized {\n        proposalLastingPeriod = 7 days;\n        validators = Validators(ValidatorContractAddr);\n\n        for (uint256 i = 0; i < vals.length; i++) {\n            require(vals[i] != address(0), \"Invalid validator address\");\n            pass[vals[i]] = true;\n        }\n\n        initialized = true;\n    }\n\n    function createProposal(address dst, string calldata details)\n        external\n        returns (bool)\n    {\n        require(!pass[dst], \"Dst already passed, You can start staking\"); \n\n        // generate proposal id\n        bytes32 id = keccak256(\n            abi.encodePacked(msg.sender, dst, details, block.timestamp)\n        );\n        require(bytes(details).length <= 3000, \"Details too long\");\n        require(proposals[id].createTime == 0, \"Proposal already exists\");\n\n        ProposalInfo memory proposal;\n        proposal.proposer = msg.sender;\n        proposal.dst = dst;\n        proposal.details = details;\n        proposal.createTime = block.timestamp;\n\n        proposals[id] = proposal;\n        emit LogCreateProposal(id, msg.sender, dst, block.timestamp);\n        return true;\n    }\n\n    function voteProposal(bytes32 id, bool auth)\n        external\n        onlyValidator\n        returns (bool)\n    {\n        require(proposals[id].createTime != 0, \"Proposal not exist\");\n        require(\n            votes[msg.sender][id].voteTime == 0,\n            \"You can't vote for a proposal twice\"\n        );\n        require(\n            block.timestamp < proposals[id].createTime + proposalLastingPeriod,\n            \"Proposal expired\"\n        );\n\n        votes[msg.sender][id].voteTime = block.timestamp;\n        votes[msg.sender][id].voter = msg.sender;\n        votes[msg.sender][id].auth = auth;\n        emit LogVote(id, msg.sender, auth, block.timestamp);\n\n        // update dst status if proposal is passed\n        if (auth) {\n            proposals[id].agree = proposals[id].agree + 1;\n        } else {\n            proposals[id].reject = proposals[id].reject + 1;\n        }\n\n        if (pass[proposals[id].dst] || proposals[id].resultExist) {\n            // do nothing if dst already passed or rejected.\n            return true;\n        }\n\n        if (\n            proposals[id].agree >=\n            validators.getActiveValidators().length / 2 + 1\n        ) {\n            pass[proposals[id].dst] = true;\n            proposals[id].resultExist = true;\n\n            // try to reactive validator if it isn't the first time\n            validators.tryReactive(proposals[id].dst);\n            emit LogPassProposal(id, proposals[id].dst, block.timestamp);\n\n            return true;\n        }\n\n        if (\n            proposals[id].reject >=\n            validators.getActiveValidators().length / 2 + 1\n        ) {\n            proposals[id].resultExist = true;\n            emit LogRejectProposal(id, proposals[id].dst, block.timestamp);\n        }\n\n        return true;\n    }\n\n    function setUnpassed(address val)\n        external\n        onlyValidatorsContract\n        returns (bool)\n    {\n        // set validator unpass\n        pass[val] = false;\n\n        emit LogSetUnpassed(val, block.timestamp);\n        return true;\n    }\n}\n",
  "sourcePath": "/mnt/c/YKChain/contracts/contracts/Proposal.sol",
  "compiler": {
    "name": "solc",
    "version": "0.6.12+commit.27d51765.Emscripten.clang"
  },
  "schemaVersion": "3.3.4",
  "updatedAt": "2021-04-06T07:46:08.189Z",
  "devdoc": {
    "kind": "dev",
    "methods": {},
    "version": 1
  },
  "userdoc": {
    "kind": "user",
    "methods": {},
    "version": 1
  }
}