{
  "contractName": "Punish",
  "abi": [
    {
      "anonymous": false,
      "inputs": [],
      "name": "LogDecreaseMissedBlocksCounter",
      "type": "event"
    },
    {
      "anonymous": false,
      "inputs": [
        {
          "indexed": true,
          "internalType": "address",
          "name": "val",
          "type": "address"
        },
        {
          "indexed": false,
          "internalType": "uint256",
          "name": "time",
          "type": "uint256"
        }
      ],
      "name": "LogPunishValidator",
      "type": "event"
    },
    {
      "inputs": [],
      "name": "MaxValidators",
      "outputs": [
        {
          "internalType": "uint16",
          "name": "",
          "type": "uint16"
        }
      ],
      "stateMutability": "view",
      "type": "function"
    },
    {
      "inputs": [],
      "name": "MinimalStakingCoin",
      "outputs": [
        {
          "internalType": "uint256",
          "name": "",
          "type": "uint256"
        }
      ],
      "stateMutability": "view",
      "type": "function"
    },
    {
      "inputs": [],
      "name": "ProposalAddr",
      "outputs": [
        {
          "internalType": "address",
          "name": "",
          "type": "address"
        }
      ],
      "stateMutability": "view",
      "type": "function"
    },
    {
      "inputs": [],
      "name": "PunishContractAddr",
      "outputs": [
        {
          "internalType": "address",
          "name": "",
          "type": "address"
        }
      ],
      "stateMutability": "view",
      "type": "function"
    },
    {
      "inputs": [],
      "name": "StakingLockPeriod",
      "outputs": [
        {
          "internalType": "uint64",
          "name": "",
          "type": "uint64"
        }
      ],
      "stateMutability": "view",
      "type": "function"
    },
    {
      "inputs": [],
      "name": "ValidatorContractAddr",
      "outputs": [
        {
          "internalType": "address",
          "name": "",
          "type": "address"
        }
      ],
      "stateMutability": "view",
      "type": "function"
    },
    {
      "inputs": [],
      "name": "WithdrawProfitPeriod",
      "outputs": [
        {
          "internalType": "uint64",
          "name": "",
          "type": "uint64"
        }
      ],
      "stateMutability": "view",
      "type": "function"
    },
    {
      "inputs": [],
      "name": "decreaseRate",
      "outputs": [
        {
          "internalType": "uint256",
          "name": "",
          "type": "uint256"
        }
      ],
      "stateMutability": "view",
      "type": "function"
    },
    {
      "inputs": [],
      "name": "initialized",
      "outputs": [
        {
          "internalType": "bool",
          "name": "",
          "type": "bool"
        }
      ],
      "stateMutability": "view",
      "type": "function"
    },
    {
      "inputs": [],
      "name": "punishThreshold",
      "outputs": [
        {
          "internalType": "uint256",
          "name": "",
          "type": "uint256"
        }
      ],
      "stateMutability": "view",
      "type": "function"
    },
    {
      "inputs": [
        {
          "internalType": "uint256",
          "name": "",
          "type": "uint256"
        }
      ],
      "name": "punishValidators",
      "outputs": [
        {
          "internalType": "address",
          "name": "",
          "type": "address"
        }
      ],
      "stateMutability": "view",
      "type": "function"
    },
    {
      "inputs": [],
      "name": "removeThreshold",
      "outputs": [
        {
          "internalType": "uint256",
          "name": "",
          "type": "uint256"
        }
      ],
      "stateMutability": "view",
      "type": "function"
    },
    {
      "inputs": [],
      "name": "initialize",
      "outputs": [],
      "stateMutability": "nonpayable",
      "type": "function"
    },
    {
      "inputs": [
        {
          "internalType": "address",
          "name": "val",
          "type": "address"
        }
      ],
      "name": "punish",
      "outputs": [],
      "stateMutability": "nonpayable",
      "type": "function"
    },
    {
      "inputs": [
        {
          "internalType": "uint256",
          "name": "epoch",
          "type": "uint256"
        }
      ],
      "name": "decreaseMissedBlocksCounter",
      "outputs": [],
      "stateMutability": "nonpayable",
      "type": "function"
    },
    {
      "inputs": [
        {
          "internalType": "address",
          "name": "val",
          "type": "address"
        }
      ],
      "name": "cleanPunishRecord",
      "outputs": [
        {
          "internalType": "bool",
          "name": "",
          "type": "bool"
        }
      ],
      "stateMutability": "nonpayable",
      "type": "function"
    },
    {
      "inputs": [],
      "name": "getPunishValidatorsLen",
      "outputs": [
        {
          "internalType": "uint256",
          "name": "",
          "type": "uint256"
        }
      ],
      "stateMutability": "view",
      "type": "function"
    },
    {
      "inputs": [
        {
          "internalType": "address",
          "name": "val",
          "type": "address"
        }
      ],
      "name": "getPunishRecord",
      "outputs": [
        {
          "internalType": "uint256",
          "name": "",
          "type": "uint256"
        }
      ],
      "stateMutability": "view",
      "type": "function"
    }
  ],
  "bytecode": "0x608060405234801561001057600080fd5b50610cdf806100206000396000f3fe608060405234801561001057600080fd5b506004361061011a5760003560e060020a90048063be645692116100a6578063db78dd2811610075578063db78dd2814610233578063e0d8ea5314610258578063ea7221a114610260578063efd8d8e214610286578063f62af26c1461028e5761011a565b8063be645692146101e7578063c967f90f146101ef578063cb1ea7251461020e578063d93d2cb9146102165761011a565b80633a061bd3116100ed5780633a061bd31461019f57806344c1aa99146101a75780636233be5d146101af57806363e1d451146101b75780638129fc1c146101dd5761011a565b8063158ef93e1461011f5780631b5e358c1461013b5780632897183d1461015f57806332f3c17f14610179575b600080fd5b6101276102ab565b604080519115158252519081900360200190f35b6101436102b4565b60408051600160a060020a039092168252519081900360200190f35b6101676102ba565b60408051918252519081900360200190f35b6101676004803603602081101561018f57600080fd5b5035600160a060020a03166102c0565b6101436102db565b6101676102e1565b6101436102e7565b610127600480360360208110156101cd57600080fd5b5035600160a060020a03166102ed565b6101e561054a565b005b6101676105e7565b6101f76105f4565b6040805161ffff9092168252519081900360200190f35b6101676105f9565b6101e56004803603602081101561022c57600080fd5b50356105ff565b61023b6108eb565b6040805167ffffffffffffffff9092168252519081900360200190f35b6101676108f0565b6101e56004803603602081101561027657600080fd5b5035600160a060020a03166108f6565b61023b610c7d565b610143600480360360208110156102a457600080fd5b5035610c82565b60005460ff1681565b61f00181565b60035481565b600160a060020a031660009081526005602052604090205490565b61f00081565b60025481565b61f00281565b6000805460ff16610348576040805160e560020a62461bcd02815260206004820152600c60248201527f4e6f7420696e6974207965740000000000000000000000000000000000000000604482015290519081900360640190fd5b3361f000146103a1576040805160e560020a62461bcd02815260206004820152601860248201527f56616c696461746f727320636f6e7472616374206f6e6c790000000000000000604482015290519081900360640190fd5b600160a060020a038216600090815260056020526040902054156103d957600160a060020a0382166000908152600560205260408120555b600160a060020a03821660009081526005602052604090206002015460ff168015610405575060065415155b1561054257600654600160a060020a038316600090815260056020526040902060010154600019909101146104dc576006805460009190600019810190811061044a57fe5b6000918252602080832090910154600160a060020a038681168452600590925260409092206001015460068054929093169350839291811061048857fe5b6000918252602080832091909101805473ffffffffffffffffffffffffffffffffffffffff1916600160a060020a039485161790558583168252600590526040808220600190810154949093168252902001555b60068054806104e757fe5b600082815260208082208301600019908101805473ffffffffffffffffffffffffffffffffffffffff19169055909201909255600160a060020a038416825260059052604081206001810191909155600201805460ff191690555b506001919050565b60005460ff16156105a5576040805160e560020a62461bcd02815260206004820152601360248201527f416c726561647920696e697469616c697a656400000000000000000000000000604482015290519081900360640190fd5b6004805473ffffffffffffffffffffffffffffffffffffffff191661f0001790556018600181815560306002556003919091556000805460ff19169091179055565b6801bc16d674ec80000081565b602081565b60015481565b334114610656576040805160e560020a62461bcd02815260206004820152600a60248201527f4d696e6572206f6e6c7900000000000000000000000000000000000000000000604482015290519081900360640190fd5b4360009081526008602052604090205460ff16156106be576040805160e560020a62461bcd02815260206004820152601160248201527f416c726561647920646563726561736564000000000000000000000000000000604482015290519081900360640190fd5b60005460ff16610718576040805160e560020a62461bcd02815260206004820152600c60248201527f4e6f7420696e6974207965740000000000000000000000000000000000000000604482015290519081900360640190fd5b8080438161072257fe5b0615610778576040805160e560020a62461bcd02815260206004820152601060248201527f426c6f636b2065706f6368206f6e6c7900000000000000000000000000000000604482015290519081900360640190fd5b436000908152600860205260409020805460ff1916600117905560065461079e576108e7565b60005b6006548110156108bc57600354600254816107b857fe5b0460056000600684815481106107ca57fe5b6000918252602080832090910154600160a060020a03168352820192909252604001902054111561087b576003546002548161080257fe5b04600560006006848154811061081457fe5b6000918252602080832090910154600160a060020a0316835282019290925260400181205460068054939091039260059291908590811061085157fe5b6000918252602080832090910154600160a060020a031683528201929092526040019020556108b4565b6000600560006006848154811061088e57fe5b6000918252602080832090910154600160a060020a031683528201929092526040019020555b6001016107a1565b506040517f181d51be54e8e8eaca6eae0eab32d4162099236bd519e7238d015d0870db464190600090a15b5050565b606481565b60065490565b33411461094d576040805160e560020a62461bcd02815260206004820152600a60248201527f4d696e6572206f6e6c7900000000000000000000000000000000000000000000604482015290519081900360640190fd5b60005460ff166109a7576040805160e560020a62461bcd02815260206004820152600c60248201527f4e6f7420696e6974207965740000000000000000000000000000000000000000604482015290519081900360640190fd5b4360009081526007602052604090205460ff1615610a0f576040805160e560020a62461bcd02815260206004820152601060248201527f416c72656164792070756e697368656400000000000000000000000000000000604482015290519081900360640190fd5b436000908152600760209081526040808320805460ff19166001179055600160a060020a0384168352600590915290206002015460ff16610ac55760068054600160a060020a038316600081815260056020526040812060018082018590558085019095557ff652222313e28459528d920b65115c16c04f3efc82aaedc97be59f3f377c0d3f909301805473ffffffffffffffffffffffffffffffffffffffff19168317905552600201805460ff191690911790555b600160a060020a03811660009081526005602052604090208054600101908190556002549081610af157fe5b06610b9357600460009054906101000a9004600160a060020a0316600160a060020a03166340a141ff826040518263ffffffff1660e060020a0281526004018082600160a060020a03168152602001915050600060405180830381600087803b158015610b5d57600080fd5b505af1158015610b71573d6000803e3d6000fd5b505050600160a060020a03821660009081526005602052604081205550610c3b565b600154600160a060020a03821660009081526005602052604090205481610bb657fe5b06610c3b57600460009054906101000a9004600160a060020a0316600160a060020a0316635dd09590826040518263ffffffff1660e060020a0281526004018082600160a060020a03168152602001915050600060405180830381600087803b158015610c2257600080fd5b505af1158015610c36573d6000803e3d6000fd5b505050505b604080514281529051600160a060020a038316917f770e0cca42c35d00240986ce8d3ed438be04663c91dac6576b79537d7c180f1e919081900360200190a250565b600281565b60068181548110610c8f57fe5b600091825260209091200154600160a060020a031690508156fea26469706673582212200412f326c1e09160909a42e65e34b754c8c777f4bd9c61ae48908cf74a5476dc64736f6c634300060c0033",
  "immutableReferences": {},
  "source": "pragma solidity >=0.6.0 <0.8.0;\n\nimport \"./Params.sol\";\nimport \"./Validators.sol\";\n\ncontract Punish is Params {\n    uint256 public punishThreshold;\n    uint256 public removeThreshold;\n    uint256 public decreaseRate;\n\n    struct PunishRecord {\n        uint256 missedBlocksCounter;\n        uint256 index;\n        bool exist;\n    }\n\n    Validators validators;\n\n    mapping(address => PunishRecord) punishRecords;\n    address[] public punishValidators;\n\n    mapping(uint256 => bool) punished;\n    mapping(uint256 => bool) decreased;\n\n    event LogDecreaseMissedBlocksCounter();\n    event LogPunishValidator(address indexed val, uint256 time);\n\n    modifier onlyNotPunished() {\n        require(!punished[block.number], \"Already punished\");\n        _;\n    }\n\n    modifier onlyNotDecreased() {\n        require(!decreased[block.number], \"Already decreased\");\n        _;\n    }\n\n    function initialize() external onlyNotInitialized {\n        validators = Validators(ValidatorContractAddr);\n        punishThreshold = 24;\n        removeThreshold = 48;\n        decreaseRate = 24;\n\n        initialized = true;\n    }\n\n    function punish(address val)\n        external\n        onlyMiner\n        onlyInitialized\n        onlyNotPunished\n    {\n        punished[block.number] = true;\n        if (!punishRecords[val].exist) {\n            punishRecords[val].index = punishValidators.length;\n            punishValidators.push(val);\n            punishRecords[val].exist = true;\n        }\n        punishRecords[val].missedBlocksCounter++;\n\n        if (punishRecords[val].missedBlocksCounter % removeThreshold == 0) {\n            validators.removeValidator(val);\n            // reset validator's missed blocks counter\n            punishRecords[val].missedBlocksCounter = 0;\n        } else if (\n            punishRecords[val].missedBlocksCounter % punishThreshold == 0\n        ) {\n            validators.removeValidatorIncoming(val);\n        }\n\n        emit LogPunishValidator(val, block.timestamp);\n    }\n\n    function decreaseMissedBlocksCounter(uint256 epoch)\n        external\n        onlyMiner\n        onlyNotDecreased\n        onlyInitialized\n        onlyBlockEpoch(epoch)\n    {\n        decreased[block.number] = true;\n        if (punishValidators.length == 0) {\n            return;\n        }\n\n        for (uint256 i = 0; i < punishValidators.length; i++) {\n            if (\n                punishRecords[punishValidators[i]].missedBlocksCounter >\n                removeThreshold / decreaseRate\n            ) {\n                punishRecords[punishValidators[i]].missedBlocksCounter =\n                    punishRecords[punishValidators[i]].missedBlocksCounter -\n                    removeThreshold /\n                    decreaseRate;\n            } else {\n                punishRecords[punishValidators[i]].missedBlocksCounter = 0;\n            }\n        }\n\n        emit LogDecreaseMissedBlocksCounter();\n    }\n\n    // clean validator's punish record if one restake in\n    function cleanPunishRecord(address val)\n        public\n        onlyInitialized\n        onlyValidatorsContract\n        returns (bool)\n    {\n        if (punishRecords[val].missedBlocksCounter != 0) {\n            punishRecords[val].missedBlocksCounter = 0;\n        }\n\n        // remove it out of array if exist\n        if (punishRecords[val].exist && punishValidators.length > 0) {\n            if (punishRecords[val].index != punishValidators.length - 1) {\n                address uval = punishValidators[punishValidators.length - 1];\n                punishValidators[punishRecords[val].index] = uval;\n\n                punishRecords[uval].index = punishRecords[val].index;\n            }\n            punishValidators.pop();\n            punishRecords[val].index = 0;\n            punishRecords[val].exist = false;\n        }\n\n        return true;\n    }\n\n    function getPunishValidatorsLen() public view returns (uint256) {\n        return punishValidators.length;\n    }\n\n    function getPunishRecord(address val) public view returns (uint256) {\n        return punishRecords[val].missedBlocksCounter;\n    }\n}\n",
  "sourcePath": "/mnt/c/YKChain/contracts/contracts/Punish.sol",
  "compiler": {
    "name": "solc",
    "version": "0.6.12+commit.27d51765.Emscripten.clang"
  },
  "schemaVersion": "3.3.4",
  "updatedAt": "2021-04-06T06:50:07.601Z",
  "devdoc": {
    "kind": "dev",
    "methods": {},
    "version": 1
  },
  "userdoc": {
    "kind": "user",
    "methods": {},
    "version": 1
  }
}