{
  "contractName": "Validators",
  "abi": [
    {
      "anonymous": false,
      "inputs": [
        {
          "indexed": true,
          "internalType": "address",
          "name": "val",
          "type": "address"
        },
        {
          "indexed": false,
          "internalType": "uint256",
          "name": "time",
          "type": "uint256"
        }
      ],
      "name": "LogAddToTopValidators",
      "type": "event"
    },
    {
      "anonymous": false,
      "inputs": [
        {
          "indexed": true,
          "internalType": "address",
          "name": "val",
          "type": "address"
        },
        {
          "indexed": true,
          "internalType": "address",
          "name": "fee",
          "type": "address"
        },
        {
          "indexed": false,
          "internalType": "uint256",
          "name": "time",
          "type": "uint256"
        }
      ],
      "name": "LogCreateValidator",
      "type": "event"
    },
    {
      "anonymous": false,
      "inputs": [
        {
          "indexed": true,
          "internalType": "address",
          "name": "coinbase",
          "type": "address"
        },
        {
          "indexed": false,
          "internalType": "uint256",
          "name": "blockReward",
          "type": "uint256"
        },
        {
          "indexed": false,
          "internalType": "uint256",
          "name": "time",
          "type": "uint256"
        }
      ],
      "name": "LogDistributeBlockReward",
      "type": "event"
    },
    {
      "anonymous": false,
      "inputs": [
        {
          "indexed": true,
          "internalType": "address",
          "name": "val",
          "type": "address"
        },
        {
          "indexed": true,
          "internalType": "address",
          "name": "fee",
          "type": "address"
        },
        {
          "indexed": false,
          "internalType": "uint256",
          "name": "time",
          "type": "uint256"
        }
      ],
      "name": "LogEditValidator",
      "type": "event"
    },
    {
      "anonymous": false,
      "inputs": [
        {
          "indexed": true,
          "internalType": "address",
          "name": "val",
          "type": "address"
        },
        {
          "indexed": false,
          "internalType": "uint256",
          "name": "time",
          "type": "uint256"
        }
      ],
      "name": "LogReactive",
      "type": "event"
    },
    {
      "anonymous": false,
      "inputs": [
        {
          "indexed": true,
          "internalType": "address",
          "name": "val",
          "type": "address"
        },
        {
          "indexed": false,
          "internalType": "uint256",
          "name": "time",
          "type": "uint256"
        }
      ],
      "name": "LogRemoveFromTopValidators",
      "type": "event"
    },
    {
      "anonymous": false,
      "inputs": [
        {
          "indexed": true,
          "internalType": "address",
          "name": "val",
          "type": "address"
        },
        {
          "indexed": false,
          "internalType": "uint256",
          "name": "hb",
          "type": "uint256"
        },
        {
          "indexed": false,
          "internalType": "uint256",
          "name": "time",
          "type": "uint256"
        }
      ],
      "name": "LogRemoveValidator",
      "type": "event"
    },
    {
      "anonymous": false,
      "inputs": [
        {
          "indexed": true,
          "internalType": "address",
          "name": "val",
          "type": "address"
        },
        {
          "indexed": false,
          "internalType": "uint256",
          "name": "hb",
          "type": "uint256"
        },
        {
          "indexed": false,
          "internalType": "uint256",
          "name": "time",
          "type": "uint256"
        }
      ],
      "name": "LogRemoveValidatorIncoming",
      "type": "event"
    },
    {
      "anonymous": false,
      "inputs": [
        {
          "indexed": true,
          "internalType": "address",
          "name": "staker",
          "type": "address"
        },
        {
          "indexed": true,
          "internalType": "address",
          "name": "val",
          "type": "address"
        },
        {
          "indexed": false,
          "internalType": "uint256",
          "name": "staking",
          "type": "uint256"
        },
        {
          "indexed": false,
          "internalType": "uint256",
          "name": "time",
          "type": "uint256"
        }
      ],
      "name": "LogStake",
      "type": "event"
    },
    {
      "anonymous": false,
      "inputs": [
        {
          "indexed": true,
          "internalType": "address",
          "name": "staker",
          "type": "address"
        },
        {
          "indexed": true,
          "internalType": "address",
          "name": "val",
          "type": "address"
        },
        {
          "indexed": false,
          "internalType": "uint256",
          "name": "amount",
          "type": "uint256"
        },
        {
          "indexed": false,
          "internalType": "uint256",
          "name": "time",
          "type": "uint256"
        }
      ],
      "name": "LogUnstake",
      "type": "event"
    },
    {
      "anonymous": false,
      "inputs": [
        {
          "indexed": false,
          "internalType": "address[]",
          "name": "newSet",
          "type": "address[]"
        }
      ],
      "name": "LogUpdateValidator",
      "type": "event"
    },
    {
      "anonymous": false,
      "inputs": [
        {
          "indexed": true,
          "internalType": "address",
          "name": "val",
          "type": "address"
        },
        {
          "indexed": true,
          "internalType": "address",
          "name": "fee",
          "type": "address"
        },
        {
          "indexed": false,
          "internalType": "uint256",
          "name": "hb",
          "type": "uint256"
        },
        {
          "indexed": false,
          "internalType": "uint256",
          "name": "time",
          "type": "uint256"
        }
      ],
      "name": "LogWithdrawProfits",
      "type": "event"
    },
    {
      "anonymous": false,
      "inputs": [
        {
          "indexed": true,
          "internalType": "address",
          "name": "staker",
          "type": "address"
        },
        {
          "indexed": true,
          "internalType": "address",
          "name": "val",
          "type": "address"
        },
        {
          "indexed": false,
          "internalType": "uint256",
          "name": "amount",
          "type": "uint256"
        },
        {
          "indexed": false,
          "internalType": "uint256",
          "name": "time",
          "type": "uint256"
        }
      ],
      "name": "LogWithdrawStaking",
      "type": "event"
    },
    {
      "inputs": [],
      "name": "MaxValidators",
      "outputs": [
        {
          "internalType": "uint16",
          "name": "",
          "type": "uint16"
        }
      ],
      "stateMutability": "view",
      "type": "function"
    },
    {
      "inputs": [],
      "name": "MinimalStakingCoin",
      "outputs": [
        {
          "internalType": "uint256",
          "name": "",
          "type": "uint256"
        }
      ],
      "stateMutability": "view",
      "type": "function"
    },
    {
      "inputs": [],
      "name": "ProposalAddr",
      "outputs": [
        {
          "internalType": "address",
          "name": "",
          "type": "address"
        }
      ],
      "stateMutability": "view",
      "type": "function"
    },
    {
      "inputs": [],
      "name": "PunishContractAddr",
      "outputs": [
        {
          "internalType": "address",
          "name": "",
          "type": "address"
        }
      ],
      "stateMutability": "view",
      "type": "function"
    },
    {
      "inputs": [],
      "name": "StakingLockPeriod",
      "outputs": [
        {
          "internalType": "uint64",
          "name": "",
          "type": "uint64"
        }
      ],
      "stateMutability": "view",
      "type": "function"
    },
    {
      "inputs": [],
      "name": "ValidatorContractAddr",
      "outputs": [
        {
          "internalType": "address",
          "name": "",
          "type": "address"
        }
      ],
      "stateMutability": "view",
      "type": "function"
    },
    {
      "inputs": [],
      "name": "WithdrawProfitPeriod",
      "outputs": [
        {
          "internalType": "uint64",
          "name": "",
          "type": "uint64"
        }
      ],
      "stateMutability": "view",
      "type": "function"
    },
    {
      "inputs": [
        {
          "internalType": "uint256",
          "name": "",
          "type": "uint256"
        }
      ],
      "name": "currentValidatorSet",
      "outputs": [
        {
          "internalType": "address",
          "name": "",
          "type": "address"
        }
      ],
      "stateMutability": "view",
      "type": "function"
    },
    {
      "inputs": [
        {
          "internalType": "uint256",
          "name": "",
          "type": "uint256"
        }
      ],
      "name": "highestValidatorsSet",
      "outputs": [
        {
          "internalType": "address",
          "name": "",
          "type": "address"
        }
      ],
      "stateMutability": "view",
      "type": "function"
    },
    {
      "inputs": [],
      "name": "initialized",
      "outputs": [
        {
          "internalType": "bool",
          "name": "",
          "type": "bool"
        }
      ],
      "stateMutability": "view",
      "type": "function"
    },
    {
      "inputs": [],
      "name": "totalJailedHB",
      "outputs": [
        {
          "internalType": "uint256",
          "name": "",
          "type": "uint256"
        }
      ],
      "stateMutability": "view",
      "type": "function"
    },
    {
      "inputs": [],
      "name": "totalStake",
      "outputs": [
        {
          "internalType": "uint256",
          "name": "",
          "type": "uint256"
        }
      ],
      "stateMutability": "view",
      "type": "function"
    },
    {
      "inputs": [
        {
          "internalType": "address[]",
          "name": "vals",
          "type": "address[]"
        }
      ],
      "name": "initialize",
      "outputs": [],
      "stateMutability": "nonpayable",
      "type": "function"
    },
    {
      "inputs": [
        {
          "internalType": "address",
          "name": "validator",
          "type": "address"
        }
      ],
      "name": "stake",
      "outputs": [
        {
          "internalType": "bool",
          "name": "",
          "type": "bool"
        }
      ],
      "stateMutability": "payable",
      "type": "function"
    },
    {
      "inputs": [
        {
          "internalType": "address payable",
          "name": "feeAddr",
          "type": "address"
        },
        {
          "internalType": "string",
          "name": "moniker",
          "type": "string"
        },
        {
          "internalType": "string",
          "name": "identity",
          "type": "string"
        },
        {
          "internalType": "string",
          "name": "website",
          "type": "string"
        },
        {
          "internalType": "string",
          "name": "email",
          "type": "string"
        },
        {
          "internalType": "string",
          "name": "details",
          "type": "string"
        }
      ],
      "name": "createOrEditValidator",
      "outputs": [
        {
          "internalType": "bool",
          "name": "",
          "type": "bool"
        }
      ],
      "stateMutability": "nonpayable",
      "type": "function"
    },
    {
      "inputs": [
        {
          "internalType": "address",
          "name": "validator",
          "type": "address"
        }
      ],
      "name": "tryReactive",
      "outputs": [
        {
          "internalType": "bool",
          "name": "",
          "type": "bool"
        }
      ],
      "stateMutability": "nonpayable",
      "type": "function"
    },
    {
      "inputs": [
        {
          "internalType": "address",
          "name": "validator",
          "type": "address"
        }
      ],
      "name": "unstake",
      "outputs": [
        {
          "internalType": "bool",
          "name": "",
          "type": "bool"
        }
      ],
      "stateMutability": "nonpayable",
      "type": "function"
    },
    {
      "inputs": [
        {
          "internalType": "address",
          "name": "validator",
          "type": "address"
        }
      ],
      "name": "withdrawStaking",
      "outputs": [
        {
          "internalType": "bool",
          "name": "",
          "type": "bool"
        }
      ],
      "stateMutability": "nonpayable",
      "type": "function"
    },
    {
      "inputs": [
        {
          "internalType": "address",
          "name": "validator",
          "type": "address"
        }
      ],
      "name": "withdrawProfits",
      "outputs": [
        {
          "internalType": "bool",
          "name": "",
          "type": "bool"
        }
      ],
      "stateMutability": "nonpayable",
      "type": "function"
    },
    {
      "inputs": [],
      "name": "distributeBlockReward",
      "outputs": [],
      "stateMutability": "payable",
      "type": "function"
    },
    {
      "inputs": [
        {
          "internalType": "address[]",
          "name": "newSet",
          "type": "address[]"
        },
        {
          "internalType": "uint256",
          "name": "epoch",
          "type": "uint256"
        }
      ],
      "name": "updateActiveValidatorSet",
      "outputs": [],
      "stateMutability": "nonpayable",
      "type": "function"
    },
    {
      "inputs": [
        {
          "internalType": "address",
          "name": "val",
          "type": "address"
        }
      ],
      "name": "removeValidator",
      "outputs": [],
      "stateMutability": "nonpayable",
      "type": "function"
    },
    {
      "inputs": [
        {
          "internalType": "address",
          "name": "val",
          "type": "address"
        }
      ],
      "name": "removeValidatorIncoming",
      "outputs": [],
      "stateMutability": "nonpayable",
      "type": "function"
    },
    {
      "inputs": [
        {
          "internalType": "address",
          "name": "val",
          "type": "address"
        }
      ],
      "name": "getValidatorDescription",
      "outputs": [
        {
          "internalType": "string",
          "name": "",
          "type": "string"
        },
        {
          "internalType": "string",
          "name": "",
          "type": "string"
        },
        {
          "internalType": "string",
          "name": "",
          "type": "string"
        },
        {
          "internalType": "string",
          "name": "",
          "type": "string"
        },
        {
          "internalType": "string",
          "name": "",
          "type": "string"
        }
      ],
      "stateMutability": "view",
      "type": "function"
    },
    {
      "inputs": [
        {
          "internalType": "address",
          "name": "val",
          "type": "address"
        }
      ],
      "name": "getValidatorInfo",
      "outputs": [
        {
          "internalType": "address payable",
          "name": "",
          "type": "address"
        },
        {
          "internalType": "enum Validators.Status",
          "name": "",
          "type": "uint8"
        },
        {
          "internalType": "uint256",
          "name": "",
          "type": "uint256"
        },
        {
          "internalType": "uint256",
          "name": "",
          "type": "uint256"
        },
        {
          "internalType": "uint256",
          "name": "",
          "type": "uint256"
        },
        {
          "internalType": "uint256",
          "name": "",
          "type": "uint256"
        },
        {
          "internalType": "address[]",
          "name": "",
          "type": "address[]"
        }
      ],
      "stateMutability": "view",
      "type": "function"
    },
    {
      "inputs": [
        {
          "internalType": "address",
          "name": "staker",
          "type": "address"
        },
        {
          "internalType": "address",
          "name": "val",
          "type": "address"
        }
      ],
      "name": "getStakingInfo",
      "outputs": [
        {
          "internalType": "uint256",
          "name": "",
          "type": "uint256"
        },
        {
          "internalType": "uint256",
          "name": "",
          "type": "uint256"
        },
        {
          "internalType": "uint256",
          "name": "",
          "type": "uint256"
        }
      ],
      "stateMutability": "view",
      "type": "function"
    },
    {
      "inputs": [],
      "name": "getActiveValidators",
      "outputs": [
        {
          "internalType": "address[]",
          "name": "",
          "type": "address[]"
        }
      ],
      "stateMutability": "view",
      "type": "function"
    },
    {
      "inputs": [],
      "name": "getTotalStakeOfActiveValidators",
      "outputs": [
        {
          "internalType": "uint256",
          "name": "total",
          "type": "uint256"
        },
        {
          "internalType": "uint256",
          "name": "len",
          "type": "uint256"
        }
      ],
      "stateMutability": "view",
      "type": "function"
    },
    {
      "inputs": [
        {
          "internalType": "address",
          "name": "who",
          "type": "address"
        }
      ],
      "name": "isActiveValidator",
      "outputs": [
        {
          "internalType": "bool",
          "name": "",
          "type": "bool"
        }
      ],
      "stateMutability": "view",
      "type": "function"
    },
    {
      "inputs": [
        {
          "internalType": "address",
          "name": "who",
          "type": "address"
        }
      ],
      "name": "isTopValidator",
      "outputs": [
        {
          "internalType": "bool",
          "name": "",
          "type": "bool"
        }
      ],
      "stateMutability": "view",
      "type": "function"
    },
    {
      "inputs": [],
      "name": "getTopValidators",
      "outputs": [
        {
          "internalType": "address[]",
          "name": "",
          "type": "address[]"
        }
      ],
      "stateMutability": "view",
      "type": "function"
    },
    {
      "inputs": [
        {
          "internalType": "string",
          "name": "moniker",
          "type": "string"
        },
        {
          "internalType": "string",
          "name": "identity",
          "type": "string"
        },
        {
          "internalType": "string",
          "name": "website",
          "type": "string"
        },
        {
          "internalType": "string",
          "name": "email",
          "type": "string"
        },
        {
          "internalType": "string",
          "name": "details",
          "type": "string"
        }
      ],
      "name": "validateDescription",
      "outputs": [
        {
          "internalType": "bool",
          "name": "",
          "type": "bool"
        }
      ],
      "stateMutability": "pure",
      "type": "function"
    }
  ],
  "bytecode": "0x608060405234801561001057600080fd5b50614a93806100206000396000f3fe6080604052600436106101ff576000357c0100000000000000000000000000000000000000000000000000000000900480638a11d7c91161011f578063b6c88519116100b2578063d6c0edad11610081578063d6c0edad14610ec2578063db78dd2814610eca578063efd8d8e214610efc578063f2888dbb14610f11576101ff565b8063b6c8851914610b84578063be64569214610e53578063c253c38414610e68578063c967f90f14610e96576101ff565b8063a224cee7116100ee578063a224cee7146106da578063a406fcb714610757578063a43569b31461092c578063afeea11514610b6f576101ff565b80638a11d7c9146105685780638b0e9f3f1461062d57806398e3b626146106425780639de7025814610675576101ff565b806340a141ff116101975780636846992a116101665780636846992a146104005780636969a25c146104b25780637f4f95fa146104dc57806382bd3d9214610535576101ff565b806340a141ff146103595780634b3d500b1461038e5780635dd09590146103b85780636233be5d146103eb576101ff565b8063222d3b05116101d3578063222d3b05146102b857806326476204146102eb5780633a061bd31461031157806340550a1c14610326576101ff565b8062362a77146102045780631303f7cf1461024b578063158ef93e146102725780631b5e358c14610287575b600080fd5b34801561021057600080fd5b506102376004803603602081101561022757600080fd5b5035600160a060020a0316610f44565b604080519115158252519081900360200190f35b34801561025757600080fd5b506102606111c1565b60408051918252519081900360200190f35b34801561027e57600080fd5b506102376111c7565b34801561029357600080fd5b5061029c6111d0565b60408051600160a060020a039092168252519081900360200190f35b3480156102c457600080fd5b50610237600480360360208110156102db57600080fd5b5035600160a060020a03166111d6565b6102376004803603602081101561030157600080fd5b5035600160a060020a0316611414565b34801561031d57600080fd5b5061029c611862565b34801561033257600080fd5b506102376004803603602081101561034957600080fd5b5035600160a060020a0316611868565b34801561036557600080fd5b5061038c6004803603602081101561037c57600080fd5b5035600160a060020a03166118c3565b005b34801561039a57600080fd5b5061029c600480360360208110156103b157600080fd5b5035611a30565b3480156103c457600080fd5b5061038c600480360360208110156103db57600080fd5b5035600160a060020a0316611a5a565b3480156103f757600080fd5b5061029c611abf565b34801561040c57600080fd5b5061038c6004803603604081101561042357600080fd5b81019060208101813564010000000081111561043e57600080fd5b82018360208201111561045057600080fd5b8035906020019184602083028401116401000000008311171561047257600080fd5b9190808060200260200160405190810160405280939291908181526020018383602002808284376000920191909152509295505091359250611ac5915050565b3480156104be57600080fd5b5061029c600480360360208110156104d557600080fd5b5035611d43565b3480156104e857600080fd5b50610517600480360360408110156104ff57600080fd5b50600160a060020a0381358116916020013516611d53565b60408051938452602084019290925282820152519081900360600190f35b34801561054157600080fd5b506102376004803603602081101561055857600080fd5b5035600160a060020a0316611d90565b34801561057457600080fd5b5061059b6004803603602081101561058b57600080fd5b5035600160a060020a0316612030565b6040518088600160a060020a031681526020018760048111156105ba57fe5b815260200186815260200185815260200184815260200183815260200180602001828103825283818151815260200191508051906020019060200280838360005b838110156106135781810151838201526020016105fb565b505050509050019850505050505050505060405180910390f35b34801561063957600080fd5b50610260612472565b34801561064e57600080fd5b506102376004803603602081101561066557600080fd5b5035600160a060020a0316612478565b34801561068157600080fd5b5061068a6124ca565b60408051602080825283518183015283519192839290830191858101910280838360005b838110156106c65781810151838201526020016106ae565b505050509050019250505060405180910390f35b3480156106e657600080fd5b5061038c600480360360208110156106fd57600080fd5b81019060208101813564010000000081111561071857600080fd5b82018360208201111561072a57600080fd5b8035906020019184602083028401116401000000008311171561074c57600080fd5b50909250905061252c565b34801561076357600080fd5b50610237600480360360c081101561077a57600080fd5b600160a060020a0382351691908101906040810160208201356401000000008111156107a557600080fd5b8201836020820111156107b757600080fd5b803590602001918460018302840111640100000000831117156107d957600080fd5b9193909290916020810190356401000000008111156107f757600080fd5b82018360208201111561080957600080fd5b8035906020019184600183028401116401000000008311171561082b57600080fd5b91939092909160208101903564010000000081111561084957600080fd5b82018360208201111561085b57600080fd5b8035906020019184600183028401116401000000008311171561087d57600080fd5b91939092909160208101903564010000000081111561089b57600080fd5b8201836020820111156108ad57600080fd5b803590602001918460018302840111640100000000831117156108cf57600080fd5b9193909290916020810190356401000000008111156108ed57600080fd5b8201836020820111156108ff57600080fd5b8035906020019184600183028401116401000000008311171561092157600080fd5b5090925090506128a0565b34801561093857600080fd5b5061095f6004803603602081101561094f57600080fd5b5035600160a060020a0316612ee7565b60405180806020018060200180602001806020018060200186810386528b818151815260200191508051906020019080838360005b838110156109ac578181015183820152602001610994565b50505050905090810190601f1680156109d95780820380516001836020036101000a031916815260200191505b5086810385528a5181528a516020918201918c019080838360005b83811015610a0c5781810151838201526020016109f4565b50505050905090810190601f168015610a395780820380516001836020036101000a031916815260200191505b5086810384528951815289516020918201918b019080838360005b83811015610a6c578181015183820152602001610a54565b50505050905090810190601f168015610a995780820380516001836020036101000a031916815260200191505b5086810383528851815288516020918201918a019080838360005b83811015610acc578181015183820152602001610ab4565b50505050905090810190601f168015610af95780820380516001836020036101000a031916815260200191505b50868103825287518152875160209182019189019080838360005b83811015610b2c578181015183820152602001610b14565b50505050905090810190601f168015610b595780820380516001836020036101000a031916815260200191505b509a505050505050505050505060405180910390f35b348015610b7b57600080fd5b5061068a613317565b348015610b9057600080fd5b50610237600480360360a0811015610ba757600080fd5b810190602081018135640100000000811115610bc257600080fd5b820183602082011115610bd457600080fd5b80359060200191846001830284011164010000000083111715610bf657600080fd5b91908080601f0160208091040260200160405190810160405280939291908181526020018383808284376000920191909152509295949360208101935035915050640100000000811115610c4957600080fd5b820183602082011115610c5b57600080fd5b80359060200191846001830284011164010000000083111715610c7d57600080fd5b91908080601f0160208091040260200160405190810160405280939291908181526020018383808284376000920191909152509295949360208101935035915050640100000000811115610cd057600080fd5b820183602082011115610ce257600080fd5b80359060200191846001830284011164010000000083111715610d0457600080fd5b91908080601f0160208091040260200160405190810160405280939291908181526020018383808284376000920191909152509295949360208101935035915050640100000000811115610d5757600080fd5b820183602082011115610d6957600080fd5b80359060200191846001830284011164010000000083111715610d8b57600080fd5b91908080601f0160208091040260200160405190810160405280939291908181526020018383808284376000920191909152509295949360208101935035915050640100000000811115610dde57600080fd5b820183602082011115610df057600080fd5b80359060200191846001830284011164010000000083111715610e1257600080fd5b91908080601f016020809104026020016040519081016040528093929190818152602001838380828437600092019190915250929550613377945050505050565b348015610e5f57600080fd5b50610260613549565b348015610e7457600080fd5b50610e7d613556565b6040805192835260208301919091528051918290030190f35b348015610ea257600080fd5b50610eab61356b565b6040805161ffff9092168252519081900360200190f35b61038c613570565b348015610ed657600080fd5b50610edf61372b565b6040805167ffffffffffffffff9092168252519081900360200190f35b348015610f0857600080fd5b50610edf613730565b348015610f1d57600080fd5b5061023760048036036020811015610f3457600080fd5b5035600160a060020a0316613735565b60003381600160a060020a03841660009081526001602052604090205460a060020a900460ff166004811115610f7657fe5b1415610fcc576040805160e560020a62461bcd02815260206004820152601360248201527f56616c696461746f72206e6f7420657869737400000000000000000000000000604482015290519081900360640190fd5b600160a060020a0383811660009081526001602052604090205481169082161461102a5760405160e560020a62461bcd02815260040180806020018281038252602e815260200180614a30602e913960400191505060405180910390fd5b600160a060020a038316600090815260016020526040902060090154436002909101111561108c5760405160e560020a62461bcd02815260040180806020018281038252605c815260200180614883605c913960600191505060405180910390fd5b600160a060020a038316600090815260016020526040902060070154806110fd576040805160e560020a62461bcd02815260206004820152601a60248201527f596f7520646f6e2774206861766520616e792070726f66697473000000000000604482015290519081900360640190fd5b600160a060020a0384166000908152600160205260408120600781019190915543600990910155801561116257604051600160a060020a0383169082156108fc029083906000818181858888f19350505050158015611160573d6000803e3d6000fd5b505b81600160a060020a031684600160a060020a03167f51a69b4502f660774c9339825c7b5adbf0b8622289134647e29728ec5d9b3bb98342604051808381526020018281526020019250505060405180910390a36001925050505b919050565b60065481565b60005460ff1681565b61f00181565b336000818152600260209081526040808320600160a060020a038616845282528083206001909252822054919291839060a060020a900460ff16600481111561121b57fe5b1415611271576040805160e560020a62461bcd02815260206004820152601360248201527f76616c696461746f72206e6f7420657869737400000000000000000000000000604482015290519081900360640190fd5b60018101546112ca576040805160e560020a62461bcd02815260206004820152601960248201527f596f75206861766520746f20756e7374616b6520666972737400000000000000604482015290519081900360640190fd5b43606467ffffffffffffffff16826001015401111561131d5760405160e560020a62461bcd0281526004018080602001828103825260218152602001806148ff6021913960400191505060405180910390fd5b8054611373576040805160e560020a62461bcd02815260206004820152601860248201527f596f7520646f6e2774206861766520616e79207374616b650000000000000000604482015290519081900360640190fd5b8054600080835560018301819055604051600160a060020a0385169183156108fc02918491818181858888f193505050501580156113b5573d6000803e3d6000fd5b5084600160a060020a031683600160a060020a03167fa70cd94070cd852339a76b32cf2d95a3c8f2a322269163d276071c1c149556198342604051808381526020018281526020019250505060405180910390a3506001949350505050565b6000805460ff1661145d576040805160e560020a62461bcd02815260206004820152600c60248201526000805160206148df833981519152604482015290519081900360640190fd5b33346001600160a060020a03851660009081526001602052604090205460a060020a900460ff16600481111561148f57fe5b14806114c857506002600160a060020a03851660009081526001602052604090205460a060020a900460ff1660048111156114c657fe5b145b6115065760405160e560020a62461bcd02815260040180806020018281038252602d815260200180614987602d913960400191505060405180910390fd5b600754604080517f82c4b3b2000000000000000000000000000000000000000000000000000000008152600160a060020a038781166004830152915191909216916382c4b3b2916024808301926020929190829003018186803b15801561156c57600080fd5b505afa158015611580573d6000803e3d6000fd5b505050506040513d602081101561159657600080fd5b50516115d65760405160e560020a62461bcd0281526004018080602001828103825260388152602001806149d56038913960400191505060405180910390fd5b600160a060020a038083166000908152600260209081526040808320938816835292905220600101541561163e5760405160e560020a62461bcd0281526004018080602001828103825260228152602001806149656022913960400191505060405180910390fd5b600160a060020a0384166000908152600160208190526040909120908101546801bc16d674ec800000906116729084613bc5565b10156116c8576040805160e560020a62461bcd02815260206004820152601860248201527f5374616b696e6720636f696e73206e6f7420656e6f7567680000000000000000604482015290519081900360640190fd5b600160a060020a0380841660009081526002602090815260408083209389168352929052205461174157600a81018054600160a060020a038086166000818152600260208181526040808420958d168452948152938220018490556001840185559384529220018054600160a060020a03191690911790555b60018101546117509083613bc5565b60018201556002815460a060020a900460ff16600481111561176e57fe5b1461179957805460a060020a60ff021916740200000000000000000000000000000000000000001781555b6117a7858260010154613c2b565b600160a060020a038084166000908152600260209081526040808320938916835292905220546117d79083613bc5565b600160a060020a038085166000908152600260209081526040808320938a168352929052205560055461180a9083613bc5565b600555604080518381524260208201528151600160a060020a0380891693908716927fb9ba725934532316cffe10975da6eb25ad49c2d1c294d982c46c9f8d684ee075929081900390910190a3506001949350505050565b61f00081565b6000805b6003548110156118ba5782600160a060020a03166003828154811061188d57fe5b600091825260209091200154600160a060020a031614156118b25760019150506111bc565b60010161186c565b50600092915050565b3361f0011461191c576040805160e560020a62461bcd02815260206004820152601460248201527f50756e69736820636f6e7472616374206f6e6c79000000000000000000000000604482015290519081900360640190fd5b600160a060020a03811660009081526001602052604090206007015461194182613ec5565b60045460011015611a2c5761195582613fdd565b600754604080517f15ea2781000000000000000000000000000000000000000000000000000000008152600160a060020a038581166004830152915191909216916315ea27819160248083019260209291908290030181600087803b1580156119bd57600080fd5b505af11580156119d1573d6000803e3d6000fd5b505050506040513d60208110156119e757600080fd5b5050604080518281524260208201528151600160a060020a038516927fa26de7ab324eac08c596549f421e5c8741213d237d2e9a2c9c0ebde0a7a849fe928290030190a25b5050565b60048181548110611a4057600080fd5b600091825260209091200154600160a060020a0316905081565b3361f00114611ab3576040805160e560020a62461bcd02815260206004820152601460248201527f50756e69736820636f6e7472616374206f6e6c79000000000000000000000000604482015290519081900360640190fd5b611abc81613ec5565b50565b61f00281565b334114611b1c576040805160e560020a62461bcd02815260206004820152600a60248201527f4d696e6572206f6e6c7900000000000000000000000000000000000000000000604482015290519081900360640190fd5b4360009081526009602090815260408083206001845290915290205460ff1615611b90576040805160e560020a62461bcd02815260206004820152601a60248201527f56616c696461746f727320616c72656164792075706461746564000000000000604482015290519081900360640190fd5b60005460ff16611bd8576040805160e560020a62461bcd02815260206004820152600c60248201526000805160206148df833981519152604482015290519081900360640190fd5b80804381611be257fe5b0615611c38576040805160e560020a62461bcd02815260206004820152601060248201527f426c6f636b2065706f6368206f6e6c7900000000000000000000000000000000604482015290519081900360640190fd5b43600090815260096020908152604080832060018085529252909120805460ff191690911790558251611cb5576040805160e560020a62461bcd02815260206004820152601460248201527f56616c696461746f722073657420656d70747921000000000000000000000000604482015290519081900360640190fd5b8251611cc890600390602086019061478c565b507feacea8f3c22f06c0b18306bdb04d0a967255129e8ce0094debb0a0ff89d006b5836040518080602001828103825283818151815260200191508051906020019060200280838360005b83811015611d2b578181015183820152602001611d13565b505050509050019250505060405180910390a1505050565b60038181548110611a4057600080fd5b600160a060020a03918216600090815260026020818152604080842094909516835292909252919091208054600182015491909201549192909190565b60003361f00214611deb576040805160e560020a62461bcd02815260206004820152601660248201527f50726f706f73616c20636f6e7472616374206f6e6c7900000000000000000000604482015290519081900360640190fd5b60005460ff16611e33576040805160e560020a62461bcd02815260206004820152600c60248201526000805160206148df833981519152604482015290519081900360640190fd5b6003600160a060020a03831660009081526001602052604090205460a060020a900460ff166004811115611e6357fe5b14158015611e9f57506004600160a060020a03831660009081526001602052604090205460a060020a900460ff166004811115611e9c57fe5b14155b15611eac575060016111bc565b6004600160a060020a03831660009081526001602052604090205460a060020a900460ff166004811115611edc57fe5b1415611fca57600854604080517f63e1d451000000000000000000000000000000000000000000000000000000008152600160a060020a038581166004830152915191909216916363e1d4519160248083019260209291908290030181600087803b158015611f4a57600080fd5b505af1158015611f5e573d6000803e3d6000fd5b505050506040513d6020811015611f7457600080fd5b5051611fca576040805160e560020a62461bcd02815260206004820152600c60248201527f636c65616e206661696c65640000000000000000000000000000000000000000604482015290519081900360640190fd5b600160a060020a038216600081815260016020908152604091829020805460a060020a60ff02191660a060020a179055815142815291517fd8b2c426ec1be69ca7583d26b1e893946e3227430d3ebc3bd64d9e1c469cb4009281900390910190a2919050565b600160a060020a03818116600090815260016020908152604080832081516101008101909252805494851682529293849384938493849384936060938593929083019060a060020a900460ff16600481111561208857fe5b600481111561209357fe5b815260200160018201548152602001600282016040518060a0016040529081600082018054600181600116156101000203166002900480601f01602080910402602001604051908101604052809291908181526020018280546001816001161561010002031660029004801561214a5780601f1061211f5761010080835404028352916020019161214a565b820191906000526020600020905b81548152906001019060200180831161212d57829003601f168201915b50505050508152602001600182018054600181600116156101000203166002900480601f0160208091040260200160405190810160405280929190818152602001828054600181600116156101000203166002900480156121ec5780601f106121c1576101008083540402835291602001916121ec565b820191906000526020600020905b8154815290600101906020018083116121cf57829003601f168201915b5050509183525050600282810180546040805160206001841615610100026000190190931694909404601f8101839004830285018301909152808452938101939083018282801561227e5780601f106122535761010080835404028352916020019161227e565b820191906000526020600020905b81548152906001019060200180831161226157829003601f168201915b505050918352505060038201805460408051602060026001851615610100026000190190941693909304601f81018490048402820184019092528181529382019392918301828280156123125780601f106122e757610100808354040283529160200191612312565b820191906000526020600020905b8154815290600101906020018083116122f557829003601f168201915b505050918352505060048201805460408051602060026001851615610100026000190190941693909304601f81018490048402820184019092528181529382019392918301828280156123a65780601f1061237b576101008083540402835291602001916123a6565b820191906000526020600020905b81548152906001019060200180831161238957829003601f168201915b5050505050815250508152602001600782015481526020016008820154815260200160098201548152602001600a820180548060200260200160405190810160405280929190818152602001828054801561242a57602002820191906000526020600020905b8154600160a060020a0316815260019091019060200180831161240c575b505050505081525050905080600001518160200151826040015183608001518460a001518560c001518660e00151975097509750975097509750975050919395979092949650565b60055481565b6000805b6004548110156118ba5782600160a060020a03166004828154811061249d57fe5b600091825260209091200154600160a060020a031614156124c25760019150506111bc565b60010161247c565b6060600380548060200260200160405190810160405280929190818152602001828054801561252257602002820191906000526020600020905b8154600160a060020a03168152600190910190602001808311612504575b5050505050905090565b60005460ff1615612587576040805160e560020a62461bcd02815260206004820152601360248201527f416c726561647920696e697469616c697a656400000000000000000000000000604482015290519081900360640190fd5b60078054600160a060020a031990811661f002179091556008805490911661f00117905560005b8181101561288e5760008383838181106125c457fe5b90506020020135600160a060020a0316600160a060020a03161415612633576040805160e560020a62461bcd02815260206004820152601960248201527f496e76616c69642076616c696461746f72206164647265737300000000000000604482015290519081900360640190fd5b61265783838381811061264257fe5b90506020020135600160a060020a0316611868565b6126a657600383838381811061266957fe5b83546001810185556000948552602094859020018054600160a060020a031916600160a060020a0395909202939093013593909316929092179055505b6126ca8383838181106126b557fe5b90506020020135600160a060020a0316612478565b6127195760048383838181106126dc57fe5b83546001810185556000948552602094859020018054600160a060020a031916600160a060020a0395909202939093013593909316929092179055505b600060018185858581811061272a57fe5b600160a060020a03602091820293909301358316845283019390935260409091016000205416919091141590506127df5782828281811061276757fe5b90506020020135600160a060020a03166001600085858581811061278757fe5b90506020020135600160a060020a0316600160a060020a0316600160a060020a0316815260200190815260200160002060000160006101000a815481600160a060020a030219169083600160a060020a031602179055505b6000600160008585858181106127f157fe5b60209081029290920135600160a060020a03168352508101919091526040016000205460a060020a900460ff16600481111561282957fe5b14156128865760026001600085858581811061284157fe5b60209081029290920135600160a060020a0316835250810191909152604001600020805460a060020a60ff02191660a060020a83600481111561288057fe5b02179055505b6001016125ae565b50506000805460ff1916600117905550565b6000805460ff166128e9576040805160e560020a62461bcd02815260206004820152600c60248201526000805160206148df833981519152604482015290519081900360640190fd5b600160a060020a038c16612947576040805160e560020a62461bcd02815260206004820152601360248201527f496e76616c696420666565206164647265737300000000000000000000000000604482015290519081900360640190fd5b612a568b8b8080601f01602080910402602001604051908101604052809392919081815260200183838082843760009201919091525050604080516020601f8f018190048102820181019092528d815292508d91508c908190840183828082843760009201919091525050604080516020601f8e018190048102820181019092528c815292508c91508b908190840183828082843760009201919091525050604080516020601f8d018190048102820181019092528b815292508b91508a908190840183828082843760009201919091525050604080516020601f8c018190048102820181019092528a815292508a915089908190840183828082843760009201919091525061337792505050565b612aaa576040805160e560020a62461bcd02815260206004820152601360248201527f496e76616c6964206465736372697074696f6e00000000000000000000000000604482015290519081900360640190fd5b33600081815260016020526040812054819060a060020a900460ff166004811115612ad157fe5b1415612bee57600754604080517f82c4b3b2000000000000000000000000000000000000000000000000000000008152600160a060020a038581166004830152915191909216916382c4b3b2916024808301926020929190829003018186803b158015612b3d57600080fd5b505afa158015612b51573d6000803e3d6000fd5b505050506040513d6020811015612b6757600080fd5b5051612bbd576040805160e560020a62461bcd02815260206004820152601c60248201527f596f75206d75737420626520617574686f72697a656420666972737400000000604482015290519081900360640190fd5b50600160a060020a0381166000908152600160208190526040909120805460a060020a60ff02191660a060020a1790555b600160a060020a038281166000908152600160205260409020548116908f1614612c60578d6001600084600160a060020a0316600160a060020a0316815260200190815260200160002060000160006101000a815481600160a060020a030219169083600160a060020a031602179055505b6040518060a001604052808e8e8080601f016020809104026020016040519081016040528093929190818152602001838380828437600092019190915250505090825250604080516020601f8f018190048102820181019092528d815291810191908e908e9081908401838280828437600092019190915250505090825250604080516020601f8d018190048102820181019092528b815291810191908c908c9081908401838280828437600092019190915250505090825250604080516020601f8b0181900481028201810190925289815291810191908a908a9081908401838280828437600092019190915250505090825250604080516020601f8901819004810282018101909252878152918101919088908890819084018382808284376000920182905250939094525050600160a060020a03851681526001602090815260409091208351805160029092019350612dc09284929101906147f1565b506020828101518051612dd992600185019201906147f1565b5060408201518051612df59160028401916020909101906147f1565b5060608201518051612e119160038401916020909101906147f1565b5060808201518051612e2d9160048401916020909101906147f1565b509050508015612e87578d600160a060020a031682600160a060020a03167f887eec9d757b7247dd8e51198f9d1b8f27979bceb34bdcc1bffd4ec5ec736c22426040518082815260200191505060405180910390a3612ed3565b8d600160a060020a031682600160a060020a03167fb8421f65501371f54d58de1937ff1e1ccdb76423ef6f84acea1814a0f6362ca0426040518082815260200191505060405180910390a35b5060019d9c50505050505050505050505050565b600160a060020a03818116600090815260016020908152604080832081516101008101909252805494851682526060948594859485948594929390929183019060a060020a900460ff166004811115612f3c57fe5b6004811115612f4757fe5b815260200160018201548152602001600282016040518060a0016040529081600082018054600181600116156101000203166002900480601f016020809104026020016040519081016040528092919081815260200182805460018160011615610100020316600290048015612ffe5780601f10612fd357610100808354040283529160200191612ffe565b820191906000526020600020905b815481529060010190602001808311612fe157829003601f168201915b50505050508152602001600182018054600181600116156101000203166002900480601f0160208091040260200160405190810160405280929190818152602001828054600181600116156101000203166002900480156130a05780601f10613075576101008083540402835291602001916130a0565b820191906000526020600020905b81548152906001019060200180831161308357829003601f168201915b5050509183525050600282810180546040805160206001841615610100026000190190931694909404601f810183900483028501830190915280845293810193908301828280156131325780601f1061310757610100808354040283529160200191613132565b820191906000526020600020905b81548152906001019060200180831161311557829003601f168201915b505050918352505060038201805460408051602060026001851615610100026000190190941693909304601f81018490048402820184019092528181529382019392918301828280156131c65780601f1061319b576101008083540402835291602001916131c6565b820191906000526020600020905b8154815290600101906020018083116131a957829003601f168201915b505050918352505060048201805460408051602060026001851615610100026000190190941693909304601f810184900484028201840190925281815293820193929183018282801561325a5780601f1061322f5761010080835404028352916020019161325a565b820191906000526020600020905b81548152906001019060200180831161323d57829003601f168201915b5050505050815250508152602001600782015481526020016008820154815260200160098201548152602001600a82018054806020026020016040519081016040528092919081815260200182805480156132de57602002820191906000526020600020905b8154600160a060020a031681526001909101906020018083116132c0575b5050509190925250505060609081015180516020820151604083015193830151608090930151919b909a50929850909650945092505050565b6060600480548060200260200160405190810160405280929190818152602001828054801561252257602002820191906000526020600020908154600160a060020a03168152600190910190602001808311612504575050505050905090565b60006046865111156133d3576040805160e560020a62461bcd02815260206004820152601660248201527f496e76616c6964206d6f6e696b6572206c656e67746800000000000000000000604482015290519081900360640190fd5b610bb88551111561342e576040805160e560020a62461bcd02815260206004820152601760248201527f496e76616c6964206964656e74697479206c656e677468000000000000000000604482015290519081900360640190fd5b608c84511115613488576040805160e560020a62461bcd02815260206004820152601660248201527f496e76616c69642077656273697465206c656e67746800000000000000000000604482015290519081900360640190fd5b608c835111156134e2576040805160e560020a62461bcd02815260206004820152601460248201527f496e76616c696420656d61696c206c656e677468000000000000000000000000604482015290519081900360640190fd5b6101188251111561353d576040805160e560020a62461bcd02815260206004820152601660248201527f496e76616c69642064657461696c73206c656e67746800000000000000000000604482015290519081900360640190fd5b50600195945050505050565b6801bc16d674ec80000081565b600080613563600061405e565b915091509091565b602081565b3341146135c7576040805160e560020a62461bcd02815260206004820152600a60248201527f4d696e6572206f6e6c7900000000000000000000000000000000000000000000604482015290519081900360640190fd5b43600090815260096020908152604080832083805290915290205460ff161561363a576040805160e560020a62461bcd02815260206004820152601960248201527f426c6f636b20697320616c726561647920726577617264656400000000000000604482015290519081900360640190fd5b60005460ff16613682576040805160e560020a62461bcd02815260206004820152600c60248201526000805160206148df833981519152604482015290519081900360640190fd5b4360009081526009602090815260408083208380528252808320805460ff191660019081179091553380855292528220549091349160a060020a900460ff1660048111156136cc57fe5b14156136d9575050613729565b6136e481600061414d565b604080518281524260208201528151600160a060020a038516927f7dc4e5df59513708dca355b8706273a5df7b810a4cec8019f2a4b9bb166a1a04928290030190a250505b565b606481565b600281565b6000805460ff1661377e576040805160e560020a62461bcd02815260206004820152600c60248201526000805160206148df833981519152604482015290519081900360640190fd5b336000600160a060020a03841660009081526001602052604090205460a060020a900460ff1660048111156137af57fe5b1415613805576040805160e560020a62461bcd02815260206004820152601360248201527f56616c696461746f72206e6f7420657869737400000000000000000000000000604482015290519081900360640190fd5b600160a060020a0380821660009081526002602090815260408083209387168352928152828220600191829052929091208254918301549091901561387e5760405160e560020a62461bcd028152600401808060200182810382526023815260200180614a0d6023913960400191505060405180910390fd5b600081116138d6576040805160e560020a62461bcd02815260206004820152601860248201527f596f7520646f6e2774206861766520616e79207374616b650000000000000000604482015290519081900360640190fd5b60045460011480156138ec57506138ec86612478565b801561390f575060018201546801bc16d674ec8000009061390d9083614474565b105b1561394e5760405160e560020a62461bcd0281526004018080602001828103825260458152602001806149206045913960600191505060405180910390fd5b600a820154600284015460001990910114613a2b57600a82018054600019810190811061397757fe5b9060005260206000200160009054906101000a9004600160a060020a031682600a018460020154815481106139a857fe5b9060005260206000200160006101000a815481600160a060020a030219169083600160a060020a0316021790555082600201546002600084600a018660020154815481106139f257fe5b6000918252602080832090910154600160a060020a0390811684528382019490945260409283018220938b168252929092529020600201555b81600a01805480613a3857fe5b60008281526020902081016000199081018054600160a060020a03191690550190556001820154613a699082614474565b600180840191909155439084015560006002840155600554613a8b9082614474565b60055560018201546801bc16d674ec8000001115613b6657815460a060020a60ff02191674030000000000000000000000000000000000000000178255613ad1866144b6565b600754604080517f15ea2781000000000000000000000000000000000000000000000000000000008152600160a060020a038981166004830152915191909216916315ea27819160248083019260209291908290030181600087803b158015613b3957600080fd5b505af1158015613b4d573d6000803e3d6000fd5b505050506040513d6020811015613b6357600080fd5b50505b85600160a060020a031684600160a060020a03167f449002ae18e748d69a55f38514400d64f966492e593e32d6e9b8b24db98a0bc18342604051808381526020018281526020019250505060405180910390a350600195945050505050565b600082820183811015613c22576040805160e560020a62461bcd02815260206004820152601b60248201527f536166654d6174683a206164646974696f6e206f766572666c6f770000000000604482015290519081900360640190fd5b90505b92915050565b60005b600454811015613c785782600160a060020a031660048281548110613c4f57fe5b600091825260209091200154600160a060020a03161415613c705750611a2c565b600101613c2e565b5060045460201115613d0b57600480546001810182556000919091527f8a35acfbc15ff81a39ae7d344fd709f28e8600b4aa8c65c6b64bfe7fe36bd19b018054600160a060020a038416600160a060020a031990911681179091556040805142815290517f1e3310ad6891b30e03874ec3d1422a6386c5da63d9faf595f5d99eeaf443b99a9181900360200190a2611a2c565b6000600160006004600081548110613d1f57fe5b6000918252602080832090910154600160a060020a03168352820192909252604001812060019081015492505b600454811015613ddd57826001600060048481548110613d6857fe5b6000918252602080832090910154600160a060020a031683528201929092526040019020600101541015613dd5576001600060048381548110613da757fe5b6000918252602080832090910154600160a060020a0316835282019290925260400190206001015492509050805b600101613d4c565b50818311613dec575050611a2c565b604080514281529051600160a060020a038616917f1e3310ad6891b30e03874ec3d1422a6386c5da63d9faf595f5d99eeaf443b99a919081900360200190a260048181548110613e3857fe5b60009182526020918290200154604080514281529051600160a060020a03909216927f7521e44559c870c316e84e60bc4785d9c034a8ab1d6acdce8134ac03f946c6ed92918290030190a28360048281548110613e9157fe5b9060005260206000200160006101000a815481600160a060020a030219169083600160a060020a0316021790555050505050565b6000600160a060020a03821660009081526001602052604090205460a060020a900460ff166004811115613ef557fe5b1480613f045750600354600110155b15613f0e57611abc565b600160a060020a0381166000908152600160205260409020600701548015613f9757613f3a818361414d565b600654613f479082613bc5565b600655600160a060020a038216600090815260016020526040902060080154613f709082613bc5565b600160a060020a038316600090815260016020526040812060088101929092556007909101555b604080518281524260208201528151600160a060020a038516927fe294e9d73f8eee23e21b2e1567960625a6b5d339cb127b55d0d09473a9951235928290030190a25050565b6000600160a060020a03821660009081526001602052604090205460a060020a900460ff16600481111561400d57fe5b141561401857611abc565b600160a060020a0381166000908152600160205260409020805460a060020a60ff02191674040000000000000000000000000000000000000000179055611abc816144b6565b60008060005b600354811015614147576004600160006003848154811061408157fe5b6000918252602080832090910154600160a060020a0316835282019290925260400190205460ff60a060020a9091041660048111156140bc57fe5b141580156140ee5750600381815481106140d257fe5b600091825260209091200154600160a060020a03858116911614155b1561413f57614136600160006003848154811061410757fe5b6000918252602080832090910154600160a060020a031683528201929092526040019020600101548490613bc5565b92506001909101905b600101614064565b50915091565b8161415757611a2c565b6000806141638361405e565b909250905080614174575050611a2c565b600080836142e257600061418887856145ec565b905061419e614197828661462e565b8890614474565b925060005b600354811015614277576000600382815481106141bc57fe5b600091825260209091200154600160a060020a031690506004600160a060020a03821660009081526001602052604090205460a060020a900460ff16600481111561420357fe5b14158015614223575087600160a060020a031681600160a060020a031614155b1561426e57600160a060020a03811660009081526001602052604090206007015461424e9084613bc5565b600160a060020a0382166000908152600160205260409020600701559250825b506001016141a3565b506000831180156142905750600160a060020a03821615155b156142d857600160a060020a0382166000908152600160205260409020600701546142bb9084613bc5565b600160a060020a0383166000908152600160205260409020600701555b5050505050611a2c565b6000805b6003548110156143fe576000600382815481106142ff57fe5b600091825260209091200154600160a060020a031690506004600160a060020a03821660009081526001602052604090205460a060020a900460ff16600481111561434657fe5b14158015614366575087600160a060020a031681600160a060020a031614155b156143f557600160a060020a03811660009081526001602081905260408220015461439e908990614398908d9061462e565b906145ec565b90506143aa8482613bc5565b600160a060020a038316600090815260016020526040902060070154929550935084916143d79082613bc5565b600160a060020a038316600090815260016020526040902060070155505b506001016142e6565b506144098782614474565b92506000831180156144235750600160a060020a03821615155b1561446b57600160a060020a03821660009081526001602052604090206007015461444e9084613bc5565b600160a060020a0383166000908152600160205260409020600701555b50505050505050565b6000613c2283836040518060400160405280601e81526020017f536166654d6174683a207375627472616374696f6e206f766572666c6f77000081525061468a565b60005b600454811080156144cc57506004546001105b15611a2c57600481815481106144de57fe5b600091825260209091200154600160a060020a03838116911614156145e4576004546000190181146145715760048054600019810190811061451c57fe5b60009182526020909120015460048054600160a060020a03909216918390811061454257fe5b9060005260206000200160006101000a815481600160a060020a030219169083600160a060020a031602179055505b600480548061457c57fe5b600082815260209081902082016000199081018054600160a060020a0319169055909101909155604080514281529051600160a060020a038516927f7521e44559c870c316e84e60bc4785d9c034a8ab1d6acdce8134ac03f946c6ed928290030190a2611a2c565b6001016144b9565b6000613c2283836040518060400160405280601a81526020017f536166654d6174683a206469766973696f6e206279207a65726f000000000000815250614724565b60008261463d57506000613c25565b8282028284828161464a57fe5b0414613c225760405160e560020a62461bcd0281526004018080602001828103825260218152602001806149b46021913960400191505060405180910390fd5b6000818484111561471c5760405160e560020a62461bcd0281526004018080602001828103825283818151815260200191508051906020019080838360005b838110156146e15781810151838201526020016146c9565b50505050905090810190601f16801561470e5780820380516001836020036101000a031916815260200191505b509250505060405180910390fd5b505050900390565b600081836147765760405160e560020a62461bcd0281526020600482018181528351602484015283519092839260449091019190850190808383600083156146e15781810151838201526020016146c9565b50600083858161478257fe5b0495945050505050565b8280548282559060005260206000209081019282156147e1579160200282015b828111156147e15782518254600160a060020a031916600160a060020a039091161782556020909201916001909101906147ac565b506147ed92915061486d565b5090565b828054600181600116156101000203166002900490600052602060002090601f01602090048101928261482757600085556147e1565b82601f1061484057805160ff19168380011785556147e1565b828001600101855582156147e1579182015b828111156147e1578251825591602001919060010190614852565b5b808211156147ed576000815560010161486e56fe596f75206d757374207761697420656e6f75676820626c6f636b7320746f20776974686472617720796f75722070726f66697473206166746572206c6174657374207769746864726177206f6620746869732076616c696461746f724e6f7420696e6974207965740000000000000000000000000000000000000000596f7572207374616b696e6720686176656e277420756e6c6f636b656420796574596f752063616e277420756e7374616b652c2076616c696461746f72206c6973742077696c6c20626520656d7074792061667465722074686973206f7065726174696f6e2143616e2774207374616b65207768656e20796f752061726520756e7374616b696e6743616e2774207374616b6520746f20612076616c696461746f7220696e2061626e6f726d616c20737461747573536166654d6174683a206d756c7469706c69636174696f6e206f766572666c6f775468652076616c696461746f7220796f752077616e7420746f207374616b65206d75737420626520617574686f72697a6564206669727374596f752061726520616c726561647920696e20756e7374616b696e6720737461747573596f7520617265206e6f742074686520666565207265636569766572206f6620746869732076616c696461746f72a2646970667358221220a37e27b12371a4429903077fbe541530dc45a5e8abff1f2d436a57e7979a219264736f6c63430007060033",
  "immutableReferences": {},
  "source": "pragma solidity >=0.6.0 <0.8.0;\n\nimport \"./Params.sol\";\nimport \"./Proposal.sol\";\nimport \"./Punish.sol\";\nimport \"./library/SafeMath.sol\";\n\ncontract Validators is Params {\n    using SafeMath for uint256;\n\n    enum Status {\n        // validator not exist, default status\n        NotExist,\n        // validator created\n        Created,\n        // anyone has staked for the validator\n        Staked,\n        // validator's staked coins < MinimalStakingCoin\n        Unstaked,\n        // validator is jailed by system(validator have to repropose)\n        Jailed\n    }\n\n    struct Description {\n        string moniker;\n        string identity;\n        string website;\n        string email;\n        string details;\n    }\n\n    struct Validator {\n        address payable feeAddr;\n        Status status;\n        uint256 coins;\n        Description description;\n        uint256 hbIncoming;\n        uint256 totalJailedHB;\n        uint256 lastWithdrawProfitsBlock;\n        // Address list of user who has staked for this validator\n        address[] stakers;\n    }\n\n    struct StakingInfo {\n        uint256 coins;\n        // unstakeBlock != 0 means that you are unstaking your stake, so you can't\n        // stake or unstake\n        uint256 unstakeBlock;\n        // index of the staker list in validator\n        uint256 index;\n    }\n\n    mapping(address => Validator) validatorInfo;\n    // staker => validator => info\n    mapping(address => mapping(address => StakingInfo)) staked;\n    // current validator set used by chain\n    // only changed at block epoch\n    address[] public currentValidatorSet;\n    // highest validator set(dynamic changed)\n    address[] public highestValidatorsSet;\n    // total stake of all validators\n    uint256 public totalStake;\n    // total jailed hb\n    uint256 public totalJailedHB;\n\n    // System contracts\n    Proposal proposal;\n    Punish punish;\n\n    enum Operations {Distribute, UpdateValidators}\n    // Record the operations is done or not.\n    mapping(uint256 => mapping(uint8 => bool)) operationsDone;\n\n    event LogCreateValidator(\n        address indexed val,\n        address indexed fee,\n        uint256 time\n    );\n    event LogEditValidator(\n        address indexed val,\n        address indexed fee,\n        uint256 time\n    );\n    event LogReactive(address indexed val, uint256 time);\n    event LogAddToTopValidators(address indexed val, uint256 time);\n    event LogRemoveFromTopValidators(address indexed val, uint256 time);\n    event LogUnstake(\n        address indexed staker,\n        address indexed val,\n        uint256 amount,\n        uint256 time\n    );\n    event LogWithdrawStaking(\n        address indexed staker,\n        address indexed val,\n        uint256 amount,\n        uint256 time\n    );\n    event LogWithdrawProfits(\n        address indexed val,\n        address indexed fee,\n        uint256 hb,\n        uint256 time\n    );\n    event LogRemoveValidator(address indexed val, uint256 hb, uint256 time);\n    event LogRemoveValidatorIncoming(\n        address indexed val,\n        uint256 hb,\n        uint256 time\n    );\n    event LogDistributeBlockReward(\n        address indexed coinbase,\n        uint256 blockReward,\n        uint256 time\n    );\n    event LogUpdateValidator(address[] newSet);\n    event LogStake(\n        address indexed staker,\n        address indexed val,\n        uint256 staking,\n        uint256 time\n    );\n\n    modifier onlyNotRewarded() {\n        require(\n            operationsDone[block.number][uint8(Operations.Distribute)] == false,\n            \"Block is already rewarded\"\n        );\n        _;\n    }\n\n    modifier onlyNotUpdated() {\n        require(\n            operationsDone[block.number][uint8(Operations.UpdateValidators)] ==\n                false,\n            \"Validators already updated\"\n        );\n        _;\n    }\n\n    function initialize(address[] calldata vals) external onlyNotInitialized {\n        proposal = Proposal(ProposalAddr);\n        punish = Punish(PunishContractAddr);\n\n        for (uint256 i = 0; i < vals.length; i++) {\n            require(vals[i] != address(0), \"Invalid validator address\");\n\n            if (!isActiveValidator(vals[i])) {\n                currentValidatorSet.push(vals[i]);\n            }\n            if (!isTopValidator(vals[i])) {\n                highestValidatorsSet.push(vals[i]);\n            }\n            if (validatorInfo[vals[i]].feeAddr == address(0)) {\n                validatorInfo[vals[i]].feeAddr = payable(vals[i]);\n            }\n            // Important: NotExist validator can't get profits\n            if (validatorInfo[vals[i]].status == Status.NotExist) {\n                validatorInfo[vals[i]].status = Status.Staked;\n            }\n        }\n\n        initialized = true;\n    }\n\n    // stake for the validator\n    function stake(address validator)\n        external\n        payable\n        onlyInitialized\n        returns (bool)\n    {\n        address payable staker = msg.sender;\n        uint256 staking = msg.value;\n\n        require(\n            validatorInfo[validator].status == Status.Created ||\n                validatorInfo[validator].status == Status.Staked,\n            \"Can't stake to a validator in abnormal status\"\n        );\n        require(\n            proposal.pass(validator),\n            \"The validator you want to stake must be authorized first\"\n        );\n        require(\n            staked[staker][validator].unstakeBlock == 0,\n            \"Can't stake when you are unstaking\"\n        );\n\n        Validator storage valInfo = validatorInfo[validator];\n        // The staked coins of validator must >= MinimalStakingCoin\n        require(\n            valInfo.coins.add(staking) >= MinimalStakingCoin,\n            \"Staking coins not enough\"\n        );\n\n        // stake at first time to this valiadtor\n        if (staked[staker][validator].coins == 0) {\n            // add staker to validator's record list\n            staked[staker][validator].index = valInfo.stakers.length;\n            valInfo.stakers.push(staker);\n        }\n\n        valInfo.coins = valInfo.coins.add(staking);\n        if (valInfo.status != Status.Staked) {\n            valInfo.status = Status.Staked;\n        }\n        tryAddValidatorToHighestSet(validator, valInfo.coins);\n\n        // record staker's info\n        staked[staker][validator].coins = staked[staker][validator].coins.add(\n            staking\n        );\n        totalStake = totalStake.add(staking);\n\n        emit LogStake(staker, validator, staking, block.timestamp);\n        return true;\n    }\n\n    function createOrEditValidator(\n        address payable feeAddr,\n        string calldata moniker,\n        string calldata identity,\n        string calldata website,\n        string calldata email,\n        string calldata details\n    ) external onlyInitialized returns (bool) {\n        require(feeAddr != address(0), \"Invalid fee address\");\n        require(\n            validateDescription(moniker, identity, website, email, details),\n            \"Invalid description\"\n        );\n        address payable validator = msg.sender;\n        bool isCreate = false;\n        if (validatorInfo[validator].status == Status.NotExist) {\n            require(proposal.pass(validator), \"You must be authorized first\");\n            validatorInfo[validator].status = Status.Created;\n            isCreate = true;\n        }\n\n        if (validatorInfo[validator].feeAddr != feeAddr) {\n            validatorInfo[validator].feeAddr = feeAddr;\n        }\n\n        validatorInfo[validator].description = Description(\n            moniker,\n            identity,\n            website,\n            email,\n            details\n        );\n\n        if (isCreate) {\n            emit LogCreateValidator(validator, feeAddr, block.timestamp);\n        } else {\n            emit LogEditValidator(validator, feeAddr, block.timestamp);\n        }\n        return true;\n    }\n\n    function tryReactive(address validator)\n        external\n        onlyProposalContract\n        onlyInitialized\n        returns (bool)\n    {\n        // Only update validator status if Unstaked/Jailed\n        if (\n            validatorInfo[validator].status != Status.Unstaked &&\n            validatorInfo[validator].status != Status.Jailed\n        ) {\n            return true;\n        }\n\n        if (validatorInfo[validator].status == Status.Jailed) {\n            require(punish.cleanPunishRecord(validator), \"clean failed\");\n        }\n        validatorInfo[validator].status = Status.Created;\n\n        emit LogReactive(validator, block.timestamp);\n    }\n\n    function unstake(address validator)\n        external\n        onlyInitialized\n        returns (bool)\n    {\n        address staker = msg.sender;\n        require(\n            validatorInfo[validator].status != Status.NotExist,\n            \"Validator not exist\"\n        );\n\n        StakingInfo storage stakingInfo = staked[staker][validator];\n        Validator storage valInfo = validatorInfo[validator];\n        uint256 unstakeAmount = stakingInfo.coins;\n\n        require(\n            stakingInfo.unstakeBlock == 0,\n            \"You are already in unstaking status\"\n        );\n        require(unstakeAmount > 0, \"You don't have any stake\");\n        // You can't unstake if the validator is the only one top validator and\n        // this unstake operation will cause staked coins of validator < MinimalStakingCoin\n        require(\n            !(highestValidatorsSet.length == 1 &&\n                isTopValidator(validator) &&\n                valInfo.coins.sub(unstakeAmount) < MinimalStakingCoin),\n            \"You can't unstake, validator list will be empty after this operation!\"\n        );\n\n        // try to remove this staker out of validator stakers list.\n        if (stakingInfo.index != valInfo.stakers.length - 1) {\n            valInfo.stakers[stakingInfo.index] = valInfo.stakers[valInfo\n                .stakers\n                .length - 1];\n            // update index of the changed staker.\n            staked[valInfo.stakers[stakingInfo.index]][validator]\n                .index = stakingInfo.index;\n        }\n        valInfo.stakers.pop();\n\n        valInfo.coins = valInfo.coins.sub(unstakeAmount);\n        stakingInfo.unstakeBlock = block.number;\n        stakingInfo.index = 0;\n        totalStake = totalStake.sub(unstakeAmount);\n\n        // try to remove it out of active validator set if validator's coins < MinimalStakingCoin\n        if (valInfo.coins < MinimalStakingCoin) {\n            valInfo.status = Status.Unstaked;\n            // it's ok if validator not in highest set\n            tryRemoveValidatorInHighestSet(validator);\n\n            // call proposal contract to set unpass.\n            // validator have to repropose to rebecome a validator.\n            proposal.setUnpassed(validator);\n        }\n\n        emit LogUnstake(staker, validator, unstakeAmount, block.timestamp);\n        return true;\n    }\n\n    function withdrawStaking(address validator) external returns (bool) {\n        address payable staker = payable(msg.sender);\n        StakingInfo storage stakingInfo = staked[staker][validator];\n        require(\n            validatorInfo[validator].status != Status.NotExist,\n            \"validator not exist\"\n        );\n        require(stakingInfo.unstakeBlock != 0, \"You have to unstake first\");\n        // Ensure staker can withdraw his staking back\n        require(\n            stakingInfo.unstakeBlock + StakingLockPeriod <= block.number,\n            \"Your staking haven't unlocked yet\"\n        );\n        require(stakingInfo.coins > 0, \"You don't have any stake\");\n\n        uint256 staking = stakingInfo.coins;\n        stakingInfo.coins = 0;\n        stakingInfo.unstakeBlock = 0;\n\n        // send stake back to staker\n        staker.transfer(staking);\n\n        emit LogWithdrawStaking(staker, validator, staking, block.timestamp);\n        return true;\n    }\n\n    // feeAddr can withdraw profits of it's validator\n    function withdrawProfits(address validator) external returns (bool) {\n        address payable feeAddr = payable(msg.sender);\n        require(\n            validatorInfo[validator].status != Status.NotExist,\n            \"Validator not exist\"\n        );\n        require(\n            validatorInfo[validator].feeAddr == feeAddr,\n            \"You are not the fee receiver of this validator\"\n        );\n        require(\n            validatorInfo[validator].lastWithdrawProfitsBlock +\n                WithdrawProfitPeriod <=\n                block.number,\n            \"You must wait enough blocks to withdraw your profits after latest withdraw of this validator\"\n        );\n        uint256 hbIncoming = validatorInfo[validator].hbIncoming;\n        require(hbIncoming > 0, \"You don't have any profits\");\n\n        // update info\n        validatorInfo[validator].hbIncoming = 0;\n        validatorInfo[validator].lastWithdrawProfitsBlock = block.number;\n\n        // send profits to fee address\n        if (hbIncoming > 0) {\n            feeAddr.transfer(hbIncoming);\n        }\n\n        emit LogWithdrawProfits(\n            validator,\n            feeAddr,\n            hbIncoming,\n            block.timestamp\n        );\n\n        return true;\n    }\n\n    // distributeBlockReward distributes block reward to all active validators\n    function distributeBlockReward()\n        external\n        payable\n        onlyMiner\n        onlyNotRewarded\n        onlyInitialized\n    {\n        operationsDone[block.number][uint8(Operations.Distribute)] = true;\n        address val = msg.sender;\n        uint256 hb = msg.value;\n\n        // never reach this\n        if (validatorInfo[val].status == Status.NotExist) {\n            return;\n        }\n\n        // Jailed validator can't get profits.\n        addProfitsToActiveValidatorsByStakePercentExcept(hb, address(0));\n\n        emit LogDistributeBlockReward(val, hb, block.timestamp);\n    }\n\n    function updateActiveValidatorSet(address[] memory newSet, uint256 epoch)\n        public\n        onlyMiner\n        onlyNotUpdated\n        onlyInitialized\n        onlyBlockEpoch(epoch)\n    {\n        operationsDone[block.number][uint8(Operations.UpdateValidators)] = true;\n        require(newSet.length > 0, \"Validator set empty!\");\n\n        currentValidatorSet = newSet;\n\n        emit LogUpdateValidator(newSet);\n    }\n\n    function removeValidator(address val) external onlyPunishContract {\n        uint256 hb = validatorInfo[val].hbIncoming;\n\n        tryRemoveValidatorIncoming(val);\n\n        // remove the validator out of active set\n        // Note: the jailed validator may in active set if there is only one validator exists\n        if (highestValidatorsSet.length > 1) {\n            tryJailValidator(val);\n\n            // call proposal contract to set unpass.\n            // you have to repropose to be a validator.\n            proposal.setUnpassed(val);\n            emit LogRemoveValidator(val, hb, block.timestamp);\n        }\n    }\n\n    function removeValidatorIncoming(address val) external onlyPunishContract {\n        tryRemoveValidatorIncoming(val);\n    }\n\n    function getValidatorDescription(address val)\n        public\n        view\n        returns (\n            string memory,\n            string memory,\n            string memory,\n            string memory,\n            string memory\n        )\n    {\n        Validator memory v = validatorInfo[val];\n\n        return (\n            v.description.moniker,\n            v.description.identity,\n            v.description.website,\n            v.description.email,\n            v.description.details\n        );\n    }\n\n    function getValidatorInfo(address val)\n        public\n        view\n        returns (\n            address payable,\n            Status,\n            uint256,\n            uint256,\n            uint256,\n            uint256,\n            address[] memory\n        )\n    {\n        Validator memory v = validatorInfo[val];\n\n        return (\n            v.feeAddr,\n            v.status,\n            v.coins,\n            v.hbIncoming,\n            v.totalJailedHB,\n            v.lastWithdrawProfitsBlock,\n            v.stakers\n        );\n    }\n\n    function getStakingInfo(address staker, address val)\n        public\n        view\n        returns (\n            uint256,\n            uint256,\n            uint256\n        )\n    {\n        return (\n            staked[staker][val].coins,\n            staked[staker][val].unstakeBlock,\n            staked[staker][val].index\n        );\n    }\n\n    function getActiveValidators() public view returns (address[] memory) {\n        return currentValidatorSet;\n    }\n\n    function getTotalStakeOfActiveValidators()\n        public\n        view\n        returns (uint256 total, uint256 len)\n    {\n        return getTotalStakeOfActiveValidatorsExcept(address(0));\n    }\n\n    function getTotalStakeOfActiveValidatorsExcept(address val)\n        private\n        view\n        returns (uint256 total, uint256 len)\n    {\n        for (uint256 i = 0; i < currentValidatorSet.length; i++) {\n            if (\n                validatorInfo[currentValidatorSet[i]].status != Status.Jailed &&\n                val != currentValidatorSet[i]\n            ) {\n                total = total.add(validatorInfo[currentValidatorSet[i]].coins);\n                len++;\n            }\n        }\n\n        return (total, len);\n    }\n\n    function isActiveValidator(address who) public view returns (bool) {\n        for (uint256 i = 0; i < currentValidatorSet.length; i++) {\n            if (currentValidatorSet[i] == who) {\n                return true;\n            }\n        }\n\n        return false;\n    }\n\n    function isTopValidator(address who) public view returns (bool) {\n        for (uint256 i = 0; i < highestValidatorsSet.length; i++) {\n            if (highestValidatorsSet[i] == who) {\n                return true;\n            }\n        }\n\n        return false;\n    }\n\n    function getTopValidators() public view returns (address[] memory) {\n        return highestValidatorsSet;\n    }\n\n    function validateDescription(\n        string memory moniker,\n        string memory identity,\n        string memory website,\n        string memory email,\n        string memory details\n    ) public pure returns (bool) {\n        require(bytes(moniker).length <= 70, \"Invalid moniker length\");\n        require(bytes(identity).length <= 3000, \"Invalid identity length\");\n        require(bytes(website).length <= 140, \"Invalid website length\");\n        require(bytes(email).length <= 140, \"Invalid email length\");\n        require(bytes(details).length <= 280, \"Invalid details length\");\n\n        return true;\n    }\n\n    function tryAddValidatorToHighestSet(address val, uint256 staking)\n        internal\n    {\n        // do nothing if you are already in highestValidatorsSet set\n        for (uint256 i = 0; i < highestValidatorsSet.length; i++) {\n            if (highestValidatorsSet[i] == val) {\n                return;\n            }\n        }\n\n        if (highestValidatorsSet.length < MaxValidators) {\n            highestValidatorsSet.push(val);\n            emit LogAddToTopValidators(val, block.timestamp);\n            return;\n        }\n\n        // find lowest validator index in current validator set\n        uint256 lowest = validatorInfo[highestValidatorsSet[0]].coins;\n        uint256 lowestIndex = 0;\n        for (uint256 i = 1; i < highestValidatorsSet.length; i++) {\n            if (validatorInfo[highestValidatorsSet[i]].coins < lowest) {\n                lowest = validatorInfo[highestValidatorsSet[i]].coins;\n                lowestIndex = i;\n            }\n        }\n\n        // do nothing if staking amount isn't bigger than current lowest\n        if (staking <= lowest) {\n            return;\n        }\n\n        // replace the lowest validator\n        emit LogAddToTopValidators(val, block.timestamp);\n        emit LogRemoveFromTopValidators(\n            highestValidatorsSet[lowestIndex],\n            block.timestamp\n        );\n        highestValidatorsSet[lowestIndex] = val;\n    }\n\n    function tryRemoveValidatorIncoming(address val) private {\n        // do nothing if validator not exist(impossible)\n        if (\n            validatorInfo[val].status == Status.NotExist ||\n            currentValidatorSet.length <= 1\n        ) {\n            return;\n        }\n\n        uint256 hb = validatorInfo[val].hbIncoming;\n        if (hb > 0) {\n            addProfitsToActiveValidatorsByStakePercentExcept(hb, val);\n            // for display purpose\n            totalJailedHB = totalJailedHB.add(hb);\n            validatorInfo[val].totalJailedHB = validatorInfo[val]\n                .totalJailedHB\n                .add(hb);\n\n            validatorInfo[val].hbIncoming = 0;\n        }\n\n        emit LogRemoveValidatorIncoming(val, hb, block.timestamp);\n    }\n\n    // add profits to all validators by stake percent except the punished validator or jailed validator\n    function addProfitsToActiveValidatorsByStakePercentExcept(\n        uint256 totalReward,\n        address punishedVal\n    ) private {\n        if (totalReward == 0) {\n            return;\n        }\n\n        uint256 totalRewardStake;\n        uint256 rewardValsLen;\n        (\n            totalRewardStake,\n            rewardValsLen\n        ) = getTotalStakeOfActiveValidatorsExcept(punishedVal);\n\n        if (rewardValsLen == 0) {\n            return;\n        }\n\n        uint256 remain;\n        address last;\n\n        // no stake(at genesis period)\n        if (totalRewardStake == 0) {\n            uint256 per = totalReward.div(rewardValsLen);\n            remain = totalReward.sub(per.mul(rewardValsLen));\n\n            for (uint256 i = 0; i < currentValidatorSet.length; i++) {\n                address val = currentValidatorSet[i];\n                if (\n                    validatorInfo[val].status != Status.Jailed &&\n                    val != punishedVal\n                ) {\n                    validatorInfo[val].hbIncoming = validatorInfo[val]\n                        .hbIncoming\n                        .add(per);\n\n                    last = val;\n                }\n            }\n\n            if (remain > 0 && last != address(0)) {\n                validatorInfo[last].hbIncoming = validatorInfo[last]\n                    .hbIncoming\n                    .add(remain);\n            }\n            return;\n        }\n\n        uint256 added;\n        for (uint256 i = 0; i < currentValidatorSet.length; i++) {\n            address val = currentValidatorSet[i];\n            if (\n                validatorInfo[val].status != Status.Jailed && val != punishedVal\n            ) {\n                uint256 reward = totalReward.mul(validatorInfo[val].coins).div(\n                    totalRewardStake\n                );\n                added = added.add(reward);\n                last = val;\n                validatorInfo[val].hbIncoming = validatorInfo[val]\n                    .hbIncoming\n                    .add(reward);\n            }\n        }\n\n        remain = totalReward.sub(added);\n        if (remain > 0 && last != address(0)) {\n            validatorInfo[last].hbIncoming = validatorInfo[last].hbIncoming.add(\n                remain\n            );\n        }\n    }\n\n    function tryJailValidator(address val) private {\n        // do nothing if validator not exist\n        if (validatorInfo[val].status == Status.NotExist) {\n            return;\n        }\n\n        // set validator status to jailed\n        validatorInfo[val].status = Status.Jailed;\n\n        // try to remove if it's in active validator set\n        tryRemoveValidatorInHighestSet(val);\n    }\n\n    function tryRemoveValidatorInHighestSet(address val) private {\n        for (\n            uint256 i = 0;\n            // ensure at least one validator exist\n            i < highestValidatorsSet.length && highestValidatorsSet.length > 1;\n            i++\n        ) {\n            if (val == highestValidatorsSet[i]) {\n                // remove it\n                if (i != highestValidatorsSet.length - 1) {\n                    highestValidatorsSet[i] = highestValidatorsSet[highestValidatorsSet\n                        .length - 1];\n                }\n\n                highestValidatorsSet.pop();\n                emit LogRemoveFromTopValidators(val, block.timestamp);\n\n                break;\n            }\n        }\n    }\n}\n",
  "sourcePath": "/mnt/c/YKChain/contracts/contracts/Validators.sol",
  "compiler": {
    "name": "solc",
    "version": "0.7.6+commit.7338295f.Emscripten.clang"
  },
  "schemaVersion": "3.3.4",
  "updatedAt": "2021-04-08T13:02:49.326Z",
  "devdoc": {
    "kind": "dev",
    "methods": {},
    "version": 1
  },
  "userdoc": {
    "kind": "user",
    "methods": {},
    "version": 1
  }
}